:020000040800F2
:100000002005002001010008750D00086D0D000895
:10001000710D00087B0A0008171A00080000000094
:1000200000000000000000000000000015100008A3
:100030007F0A0008000000008D0E00085111000822
:100040001B0100081B0100081B0100081B01000820
:100050001B0100081B0100081B0100081B01000810
:100060001B0100081B0100081B0100081B01000800
:100070001B0100081B0100081B0100081B010008F0
:100080001B0100081B0100081B0100081B010008E0
:100090001B0100081B0100081B0100081B010008D0
:1000A0001B0100081B0100081B0100081B010008C0
:1000B000F51300081B0100080D1400081B010008BF
:1000C0001B0100081B0100081B0100081B010008A0
:1000D0001B010008F51700081B0100081B010008A0
:1000E0001B0100081B0100081B010008DFF80CD0F1
:1000F00000F08CFB00480047312500082005002057
:100100000648804706480047FEE7FEE7FEE7FEE7B1
:10011000FEE7FEE7FEE7FEE7FEE7FEE75511000813
:10012000ED000008F0B480EA0102D40F4200B2EB07
:10013000410F02D20246084611464A0042D0C30D82
:10014000DDB2C1F3C752AD1A202D35DAC1F3160165
:1001500041F4000204B15242C5F1200602FA06F150
:100160002A411044B3EBD05F23D0C4B1012DA0EBE2
:10017000C35009DCF0BC4FF0004202EAC352DBB2CC
:1001800000F5000000F070B9400000F1807000EB55
:10019000C350A0F1807040EAD170490009E04908DD
:1001A00041EAC071A0EBC35000F50000400800EB2D
:1001B000C350F0BC00F04FB96142012202EB410193
:1001C000001BF6E7F0BC704781F00041AAE780F021
:1001D0000040A7E780EA010210B502F000434000AA
:1001E00022D04A001FD0010E01EB1261C0F356006D
:1001F000C2F3560240F4000042F40002A0FB0220C9
:1002000000047F39140400D0401C50EA124001D48D
:100210004000491EC2B20C0604EBD010401C40083E
:10022000802A02D003E0002010BD20F00100002948
:1002300000DA0020184310BD2DE9FE4F81EA0304C7
:1002400004F0004421F0004100944FF0000B23F033
:10025000004350EA01045ED052EA03045BD0C3F3CA
:100260000A54C1F30A552C44A4F2F3340194A0FBC0
:100270000254C1F3130141F48011C3F3130343F497
:10028000801301FB024400FB034E840A970A44EAF0
:10029000815447EA8357A4FB076802958D0A05FB42
:1002A00007854FEA932C04FB0C542705029D4FEA67
:1002B000065847EA1637B5EB08056EEB070C870EB4
:1002C000920E47EA811742EA8312A7FB0201B6EBBE
:1002D0000B0164EB00042B0D43EA0C335E1844EB76
:1002E0001C50DA465146E7FB0201C5F313044FEAFE
:1002F0000B3343EA14534FEA0432019C43EA0603EA
:10030000A4F10C040294009CCDE900B400F0E9F8DB
:1003100003B0BDE8F08F00200146F9E7C10F80EA85
:10032000E0700844CA079623002100F09DB8962388
:100330000022114600F098B800F0004220F0004082
:10034000C10DC0F3160040F400007F2901DA00203F
:100350007047962903DCC1F19601C84001E0963947
:100360008840002AF4D04042704700F0004230F04C
:1003700000400AD0C10D01F56071C0F3160042EAD9
:100380000151C208400711437047002001467047E1
:1003900001F0004330B421F0004150EA010206D0E0
:1003A0000A0DA2F56072C1F31301002A02DC30BC11
:1003B00000207047440F44EAC104C100E01830BC7B
:1003C00000EBC25000F047B830B50B4601460020A4
:1003D0002022012409E021FA02F59D4205D303FA07
:1003E00002F5491B04FA02F52844151EA2F1010288
:1003F000F1DC30BD2DE9F05F0546002092469B46BA
:1004000088460646814640241BE02846414647462A
:10041000224600F01CFA53465A46C01A914110D3A6
:1004200011461846224600F003FA2D1A67EB010820
:100430004F4622460120002100F0FAF917EB00098F
:100440004E41201EA4F10104DFDC484631462A4615
:100450004346BDE8F09F0029A8BF7047401C4900F3
:1004600008BF20F00100704710B4B0FA80FC00FA19
:100470000CF050EA010404BF10BC704749B1CCF144
:10048000200421FA04F411FA0CF118BF01212143D0
:100490000843A3EB0C01CB1D4FEA00614FEA10208B
:1004A00042BF002010BC704700EBC350104400292D
:1004B000A4BF10BC7047401C490008BF20F00100D9
:1004C00010BC704710B5141E73F1000408DA401C0C
:1004D00041F1000192185B411A4301D120F0010063
:1004E00010BD2DE9F04D92469B4611B1B1FA81F253
:1004F00002E0B0FA80F22032904600F099F904460A
:100500000F4640EA0A0041EA0B0153465A460843A7
:1005100013D0114653EA010019D0C8F140025046E9
:1005200000F095F905460E4650465946424600F001
:100530007FF9084305D0012004E020463946BDE894
:10054000F08D0020054346EAE0762C4337430A98B5
:100550006305E40AA0EB08000022FD0A44EA4754C0
:100560000A3002D500200146E9E70105101969416A
:10057000DDE9084500196941BDE8F04DA2E72DE924
:10058000FE4F804681EA0300C00F0C46009021F028
:10059000004123F00045B8EB0200A94105D24046D6
:1005A000214690461C460B46024623F0004010436D
:1005B00047D0270DC7F30A00C3F30A510290401A2F
:1005C000019040286BDAC3F3130040F4801B0098BD
:1005D000924620B10023D2EB030A63EB0B0B019888
:1005E0005946C0F14002504600F022F906460D4639
:1005F00050465946019A00F03AF910EB0800614163
:10060000002487EA115284EAE7731A4340D0009A23
:1006100062B3019A012A4FEA075215DC001B61EB15
:1006200002014FF0004202EA0752CDE90042001CED
:1006300041F5801132462B46FFF753FF03B0BDE86A
:10064000F08F40462146F9E7001B61EB0201001CD8
:1006500041F5801300185B412018A2F5001747EB05
:10066000030140EAD570B6196D4111E06D084FEAFB
:10067000360645EAC0754FEA0752001B61EB0201DE
:10068000001C41F5801149084FEA30000019514122
:1006900032462B4603B0BDE8F04FFFF713BF00987A
:1006A000012240000023D0EB020263EBE0730098CC
:1006B00021464FEAE074B8EB000061EB0401E9E782
:1006C00083F000435BE781F0004158E72DE9F04DEE
:1006D00081EA030404F0004B21F0004514464FF07A
:1006E000000A23F0004150EA050220D054EA01023A
:1006F0001DD0C5F30A570246C5F31303C1F3130017
:10070000C1F30A5640F4801543F48013A7EB0608A2
:10071000101BD64608F2FD3873EB050002D308F132
:10072000010801E092185B41B8F1000F03DA0020E4
:100730000146BDE8F08D00204FF480110646844646
:100740000EE0171B73EB050705D3121B63EB0503C4
:1007500006434CEA010C49084FEA300092185B410D
:1007600050EA0107EDD152EA030012D082EA0400F8
:1007700083EA0501084305D0101BAB4106D20122D4
:10078000002306E000224FF0004302E06FF0010278
:1007900053101AEB06004CEB085110EB0A0041EB2A
:1007A0000B01BDE8F04DFFF78DBEC1F30A52C1F356
:1007B000130140F2FF3341F480119A4202DA002023
:1007C0000146704740F233439A42A2F2334202DCC0
:1007D000524200F03CB800F02BB8000030B5041EC7
:1007E00071F1000404DB4FF00044404264EB01016E
:1007F000141E73F1000405DB1C464FF00043524207
:1008000063EB0403994208BF904230BD064C074D8C
:1008100006E0E06840F0010394E8070098471034D0
:10082000AC42F6D3FFF766FC18270008382700080B
:10083000202A04DB203A00FA02F1002070479140A0
:10084000C2F1200320FA03F3194390407047202A95
:1008500004DB203A21FA02F00021704721FA02F36A
:10086000D040C2F120029140084319467047202A27
:1008700006DBCB17203A41FA02F043EAE07306E0C8
:1008800041FA02F3D040C2F12002914008431946D8
:10089000704721B1826842F00102826003E0826801
:1008A00022F001028260704710B50446124884426B
:1008B00008D10121401500F017FB0021601500F060
:1008C00013FB17E00D48844208D10121001500F008
:1008D0000BFB0021201500F007FB0BE008488442C9
:1008E00008D10121C80300F0FFFA00214FF40040B5
:1008F00000F0FAFA10BD0000002401400028014079
:10090000003C0140014600208A6802F004020AB15E
:10091000012000E0002070470146C86C80B270479B
:100920000246002013680B400BB1012000E00020BC
:100930007047014600208A6802F008020AB10120CF
:1009400000E000207047000030B502460020002380
:1009500050680F4C20400D790C6844EA0524204370
:10096000506090680B4C2040D1E902542C434D79E3
:1009700044EA450420439060D06A20F470000C7C67
:10098000641EE4B2234340EA0350D06230BD00004D
:10099000FFFEF0FFFDF7F1FFF0B504460D46002025
:1009A0000021092D11DDE068A5F10A0606EB4607D6
:1009B000072606FA07F18843A5F10A0606EB460664
:1009C00003FA06F10843E0600CE0206905EB4507F7
:1009D000072606FA07F1884305EB450603FA06F1F8
:1009E00008432061072A0FDA606B561E06EB860764
:1009F0001F2606FA07F18843561E06EB860605FAFF
:100A000006F10843606322E00D2A0FDA206BD61F3F
:100A100006EB86071F2606FA07F18843D61F06EB6A
:100A2000860605FA06F10843206310E0E06AA2F1A9
:100A30000D0606EB86071F2606FA07F18843A2F18A
:100A40000D0606EB860605FA06F10843E062F0BDE6
:100A5000816841F008018160704721B1826842F4E9
:100A6000A002826003E0826822F4A00282607047E4
:100A7000816841F004018160704700BFFEE7704764
:100A800000B587B00121084600F00EFA01210420CC
:100A900000F01AFA0320ADF8000004208DF80300DE
:100AA00069461E4800F08AF804A800F099FE00206C
:100AB000ADF810004FF6FF70ADF814000020ADF84F
:100AC0001600ADF8120004A94FF0804000F036FE89
:100AD00000231A4603214FF0804000F0CDFC01A80E
:100AE00000F042FD0A20ADF80C0001A9400700F01B
:100AF000E5FC0121880700F0A1FC012211469007C6
:100B000000F03BFD00214FF0804000F0E9FD0121A5
:100B1000880700F096FC07B000BD00000008014007
:100B200000B587B00121042000F0BEF901210820A2
:100B300000F0CAF9C020ADF8000004208DF80300D1
:100B400069461C4800F03AF804A800F049FE00206D
:100B5000ADF810004FF6FF70ADF814000020ADF8AE
:100B60001600ADF8120004A9134800F0E7FD0023B9
:100B70001A460321104800F07FFC01A800F0F4FCA5
:100B80000A20ADF80C0001A90B4800F097FC0121E8
:100B9000094800F053FC01221146074800F0EDFC23
:100BA0000021054800F09CFD0121034800F049FCAC
:100BB00007B000BD000C0140000800402DE9F041E5
:100BC000024600250026002000230024002791F87B
:100BD00003C00CF00F0591F803C00CF0100CBCF131
:100BE000000F03D091F802C04CEA050591F800C04F
:100BF000BCF1000F31D0146800202BE04FF0010C45
:100C00000CFA00F3B1F800C00CEA03069E4220D1B2
:100C100083004FF00F0C0CFA03F7BC4305FA03FCFA
:100C20004CEA040491F803C0BCF1280F06D14FF040
:100C3000010C0CFA00FCC2F814C00AE091F803C0E1
:100C4000BCF1480F05D14FF0010C0CFA00FCC2F8C2
:100C500010C0401C0828D1D31460B1F800C0BCF10A
:100C6000FF0F34DD546800202EE000F1080C4FF037
:100C7000010808FA0CF3B1F800C00CEA03069E4222
:100C800021D183004FF00F0C0CFA03F7BC4305FA97
:100C900003FC4CEA040491F803C0BCF1280F05D111
:100CA00000F1080C08FA0CF8C2F8148091F803C09F
:100CB000BCF1480F07D100F1080C4FF0010808FA09
:100CC0000CF8C2F81080401C0828CED35460BDE850
:100CD000F0814161704701617047000010B5044622
:100CE0000723012221460948FFF756FE0121074844
:100CF000FFF7B3FE00BF02210448FFF711FE0028F2
:100D0000F9D00248FFF708FE10BD000000240140A2
:100D10002DE9F04107460C460025002608E038463C
:100D2000FFF7DCFF0544052001F0CEFB701CC6B2C6
:100D3000A642F4DBB5FBF4F080B2BDE8F081000020
:100D400008B50121082000F0BFF84FF47040ADF85D
:100D5000000010208DF8030003208DF80200694682
:100D60000148FFF72BFF08BD000C014000BFFEE764
:100D700000BFFEE77047000070B5002100230F227E
:100D8000C47804B3154C246804F4E064C4F5E0644A
:100D9000210AC1F10403CA40447804FA03F18478BB
:100DA0001440214309010E4C0678A155047804F043
:100DB0001F050124AC4005786D11AD0005F1E0255B
:100DC000C5F8004109E0047804F01F050124AC4097
:100DD000044D0678761145F8264070BD0CED00E014
:100DE00000E400E080E100E030B589B005460C4643
:100DF0000121082000F068F80121022000F054F8D9
:100E000018208DF823000320ADF820008DF8220073
:100E100008A91C48FFF7D2FEADF81850ADF81440F1
:100E20000020ADF81A00ADF8160005A9164800F02C
:100E300085FC6020ADF804000020ADF80A00ADF894
:100E40000C000120ADF8060001A90F4800F09EFB40
:100E500001A90D4800F0F4FB01210B4800F0FDFA58
:100E60000821094800F0E2FB0821074800F026FCB1
:100E70000121054800F0D6FA0121034800F0E1FA0B
:100E800009B030BD000C0140000400407047000074
:100E900001460020034A506820F440400843506057
:100EA000704700000010024029B1064AD26902438F
:100EB000044BDA6104E0034AD2698243014BDA61F0
:100EC000704700000010024029B1064A92690243AF
:100ED000044B9A6104E0034A92698243014B9A6190
:100EE000704700000010024029B1064AD268024350
:100EF000044BDA6004E0034AD2688243014BDA60B3
:100F0000704700000010024030B50021002200248C
:100F100000232D4D6D6805F00C0121B1042905D089
:100F2000082923D105E0294D056022E0274D056001
:100F30001FE0254D6D6805F47012234D6D6805F4B2
:100F40008034022505EB92421CB9214D55430560C2
:100F50000BE01D4D6D6805F400351DB11C4D55436A
:100F6000056002E0194D5543056002E0174D05602C
:100F700000BF00BF144D6D6805F0F0010909154D63
:100F80006B5C0568DD4045600F4D6D6805F4E06100
:100F9000090A104D6B5C4568DD4085600A4D6D683F
:100FA00005F46051C90A0B4D6B5C4568DD40C560B6
:100FB000054D6D6805F44041890B074D6B5CC568B4
:100FC000B5FBF3F5056130BD0010024000127A0058
:100FD00000093D00240000203400002001460229C1
:100FE00002D0042910D108E04FF08042928C10B258
:100FF00000224FF080439A8408E0054A128810B21C
:101000000022034B1A8001E0002000BF00BF7047A0
:1010100024080040704710B500F002F810BD000031
:101020000CB50020019000903348006840F48030F7
:101030003149086000BF3048006800F4003000907B
:101040000198401C0190009818B90198B0F5A06F64
:10105000F1D12948006800F4003010B1012000905F
:1010600001E0002000900098012843D12348006847
:1010700040F01000214908600846006820F0030095
:1010800008600846006840F0020008601A4840689E
:10109000194948600846406848600846406840F47E
:1010A000806048600846406820F47C10486008462C
:1010B000406840F4E81048600846006840F08070DE
:1010C000086000BF0C48006800F000700028F9D0EC
:1010D0000948406820F00300074948600846406816
:1010E00040F00200486000BF0348406800F00C0078
:1010F0000828F9D10CBD0000001002400020024079
:1011000010B50446A1B2024800F0E5FA10BD000097
:101110000004004010B50446A1B2024800F0DDFA18
:1011200010BD000000040040042808D14FF0E02169
:10113000096941F004014FF0E022116107E04FF02E
:10114000E021096921F004014FF0E02211617047AC
:101150007047000010B51348006840F001001149C5
:10116000086008464068104908400E494860084633
:1011700000680E4908400B4908600846006820F4E2
:10118000802008600846406820F4FE0048604FF464
:101190001F008860FFF73FFF4FF0006004490860C0
:1011A00010BD0000001002400000FFF8FFFFF6FE37
:1011B00008ED00E0F0B50C46154600220021068C33
:1011C0004FF6FE773E400684028B018C4FF60C767C
:1011D00032407E1C06EA03162E433243104EB042C4
:1011E0000ED0104EB0420BD0B0F1804F08D00E4E52
:1011F000B04205D00D4EB04202D00D4EB04206D1E5
:101200004FF6FD76314044F00106314305E04FF6DC
:10121000F576314044F00106314302830184F0BD8C
:10122000002C014000340140000400400008004050
:10123000000C0040F0B50C461546002200210026A7
:10124000078C4FF6EF7C07EA0C070784028B018CB2
:101250004FF6FF7707EA041640F6FF473A404FF68D
:10126000FF7707EA03373A434FF6FF7707EA052788
:101270003A43114FB8420ED0104FB8420BD0B0F1E4
:10128000804F08D00E4FB84205D00E4FB84202D062
:101290000D4FB84206D14FF6DF77394046F01007C0
:1012A000394305E04FF65F77394044F01007394382
:1012B00002830184F0BD0000002C01400034014095
:1012C0000004004000080040000C0040F0B50C464F
:1012D0001546002200210026078C4FF6FF6C07EA16
:1012E0000C070784828B018C4FF6FF7707EA0426F0
:1012F0004FF60C773A404FF6FF7707EA03172F4374
:101300003A43114FB8420ED0104FB8420BD0B0F153
:10131000804F08D00E4FB84205D00E4FB84202D0D1
:101320000D4FB84206D14FF6FF57394046F480774B
:10133000394305E04FF2FF57394044F48077394391
:1013400082830184F0BD0000002C01400034014084
:101350000004004000080040000C0040F0B50C46BE
:101360001546002200210026078C4EF6FF7C07EA76
:101370000C070784828B018C4FF6FF7707EA04364F
:1013800040F6FF473A404FF6FF7707EA05273A4312
:101390004FF6FF7707EA03373A43114FB8420ED0B2
:1013A000104FB8420BD0B0F1804F08D00E4FB8426A
:1013B00005D00E4FB84202D00D4FB84206D14DF6BF
:1013C000FF77394046F48057394305E047F6FF5729
:1013D000394044F48057394382830184F0BD0000D2
:1013E000002C01400034014000040040000800408F
:1013F000000C00404FF08040008A4FF08040008A8F
:1014000020F001004FF080410882704704480088B6
:101410000348008820F0010001490880704700005F
:101420001008004021B1028842F08002028004E0EE
:1014300002884FF67F731A4002807047CA430282C7
:10144000704721B1028842F00102028004E0028864
:101450004FF6FE731A400280704731B1B0F8442055
:1014600042F40042A0F8442005E0B0F84420C2F362
:101470000E02A0F844207047F0B50C4615461E46F3
:101480000021002200230189028B038C4FF6F8779C
:10149000394021434FF6FC473A4040F201173A43A6
:1014A0004FF6DD773B404FF6FF7707EA06172F43ED
:1014B0003B43018102830384F0BD000070B5054603
:1014C0000C46244885420ED0234885420BD0B5F106
:1014D000804F08D02148854205D02148854202D05E
:1014E0002048854200D100E000BF208850B9238900
:1014F000A28861882846FFF75DFEE188284600F053
:10150000F1F825E0208804280AD12389A28861887F
:101510002846FFF78FFEE188284600F0ECF817E038
:10152000208808280AD12389A28861882846FFF7E5
:10153000CDFEE188284600F0EBF809E02389A28877
:1015400061882846FFF70AFFE188284600F0E9F89D
:1015500070BD0000002C0140003401400004004038
:1015600000080040000C0040002101804180012162
:1015700081800021C180018170471AB183890B43AA
:10158000838102E083898B438381704770B5002497
:1015900000220023058C4FF6FF6635400584028C3F
:1015A0008388848B4FF68F752C404FF6FC752C404A
:1015B0000D882C434FF6FF552A400D894FF6FF76D4
:1015C00006EA05252A434D8806EA05252A43154DD6
:1015D000A84202D0144DA8421DD14FF2FF752A40F7
:1015E0004D894FF6FF7606EA05252A434FF6FF356B
:1015F0002A408D8806EA05252A434EF6FF752B40C2
:101600004DF6FF752B408D8906EA05152B43CD89D4
:1016100006EA05152B4383808483CD888587028461
:1016200070BD0000002C0140003401400A4600213A
:10163000818B4FF6F7731940114381837047000087
:1016400070B5002200230024058C4EF6FF7635404D
:101650000584038C8488828B48F6FF752A404FF6F8
:10166000FF452A400D884FF6FF7606EA05252A43F6
:101670004DF6FF752B400D8906EA05352B434D8845
:1016800006EA05352B430B4DA84202D00A4DA8426D
:1016900008D14BF6FF752C408D894FF6FF7606EA90
:1016A00085152C4384808283CD88A0F84050038424
:1016B00070BD0000002C0140003401400A460021AA
:1016C000818B4FF2FF7319404FF6FF7303EA022339
:1016D00019438183704781877047A0F84010704795
:1016E00081847047028B4FF6F3731A400283028B9A
:1016F0000A4302837047028B4FF2FF331A40028382
:10170000028B4FF6FF7303EA01231A4302837047EB
:10171000828B4FF6F3731A408283828B0A43828353
:101720007047828B4FF2FF331A408283828B4FF6D1
:10173000FF7303EA01231A43828370470022028861
:101740001D4B98420ED01D4B98420BD0B0F1804FEC
:1017500008D01B4B984205D01A4B984202D01A4B26
:10176000984204D14FF68F731A404B881A43174B97
:10177000984207D0164B984204D04FF6FF431A40C8
:10178000CB881A4302808B8883850B8803850A4B9C
:1017900098420BD0094B984208D00E4B984205D086
:1017A0000D4B984202D00D4B984201D10B7A038623
:1017B0000123838270470000002C01400034014067
:1017C0000004004000080040000C004000100040F1
:1017D0000014004000400140004401400048014026
:1017E0004FF6FF71818000210180C180418001722C
:1017F0007047000010B540F225511D4800F04AF82E
:1018000010B31B4800F002F9C4B21A48008800F473
:101810000040C8B91748008800F4804060B10A2C25
:1018200003D000201349088020E01248008840F4CB
:1018300000401049088019E00D2C06D10D480088A1
:1018400040F480400B49088010E00A480088C0F34B
:101850000D0009490C5407480088401C05490880C0
:1018600008460088C72801DD0020088010BD000060
:1018700000380140400000205400002021B182893E
:1018800042F40052828104E082894DF6FF731A40CF
:101890008281704770B50246002400230025002095
:1018A00040F66A16B14200D100BFC1F3421501F003
:1018B0001F03012606FA03F3012D02D19689334056
:1018C00006E0022D02D1168A334001E0968A3340A9
:1018D0000C12012606FA04F41688344013B10CB138
:1018E000012000E0002070BDF0B503460024002672
:1018F0000025002040F66A17B94200D100BF184603
:10190000C1F3421401F01F06012707FA06F5012C66
:1019100001D10C3004E0022C01D1103000E0143071
:101920001AB107682F43076002E00768AF430760FA
:10193000F0BD00002DE9F04786B005460E460024B4
:10194000A24600BFA1460027B08900B100BF2F46C4
:101950002C8A4CF6FF700440F08804432C82AC893A
:101960004EF6F3100440B08831890843718908436A
:101970000443AC81AC8A4FF6FF400440B089044375
:10198000AC8201A8FFF7C0FA1F48874202D1DDF8F8
:1019900010A001E0DDF80CA0A88900F4004040B1DF
:1019A0000AEBCA0000EB0A1031684900B0FBF1F8FD
:1019B00007E00AEBCA0000EB0A1031688900B0FBAF
:1019C000F1F86420B8FBF0F004012009642101FB68
:1019D0001089A88900F4004040B1322000EBC90012
:1019E000B0FBF1F000F00700044308E0322000EB08
:1019F00009106421B0FBF1F000F00F0004432C81CA
:101A000006B0BDE8F0870000003801400146888834
:101A1000C0F30800704700BFFEE700002DE9F84F53
:101A200005460E46AC1B2046FEF778FC834614485C
:101A300001685846FEF7CEFB814612490968601AD4
:101A4000FEF76CFC8346104801685846FEF7C2FB5F
:101A500082464946FEF766FB80460C480068FEF762
:101A60005DFC41460090FEF75DFB0746FEF764FC17
:101A7000064908600348046008460068BDE8F88F1E
:101A8000080000204800002004000020440000203E
:101A90002DE9F84F05460E46AC1B2046FEF73EFCEE
:101AA0008346144801685846FEF794FB8146124964
:101AB0000968601AFEF732FC8346104801685846F0
:101AC000FEF788FB82464946FEF72CFB80460C4811
:101AD0000068FEF723FC41460090FEF723FB074613
:101AE000FEF72AFC064908600348046008460068BF
:101AF000BDE8F88F080000205000002004000020FE
:101B00004C0000200FB4054B10B503A9044A0298FD
:101B100000F0DAF810BC5DF814FB00001525000891
:101B20003C00002002E008C8121F08C1002AFAD1B8
:101B300070477047002001E001C1121F002AFBD14D
:101B4000704700002DE9FF5F82B00021DDE904301D
:101B5000020DDDF840B0034318D044F61050A2F255
:101B6000FF3242431514119801281FD0A5EB0B003A
:101B7000401C5FEA000A4FF000064E4FDFF8389134
:101B8000B046504615D5CAF1000413E0119801245F
:101B90004AA3012801D16FEA0B010298119AC0E90A
:101BA0000031C0E9024206B0BDE8F09FCBF1000071
:101BB000DFE704460021404A491842EB0450CDE9D2
:101BC000001012E0E00707D032463B464046494647
:101BD000FEF732FB8046894632463B4610461946A0
:101BE000FEF72AFB06460F466410002CEAD1DDE919
:101BF0000401DDE90023BAF1000F06DAFEF71CFB51
:101C000042464B46FEF718FB05E0FEF75FFD4246F5
:101C10004B46FEF75BFD04460E460022284BFEF7BE
:101C2000DDFD03D84FF0FF30014607E00022254BD1
:101C300020463146FEF7A3FCFEF7B7FD102409E06D
:101C4000002C0ADB0A220023FEF7D4FB039B303270
:101C50001A55641E50EA0102F2D1641C039AC4F1C1
:101C600011031444119A012A03D0012208430DD113
:101C70000AE0084304D000204FF0110B119072E7E6
:101C8000A3EB0B056D1E0DE05B4504DD4FF000027C
:101C900005F1010504E003DA4FF00002A5F10105AA
:101CA000002AECD002981199C0E90231C0E9004540
:101CB00079E70000000014400000F03F3000000011
:101CC0000000F0430000E03F2DE9FF4F95B09B4638
:101CD0008946064600250FE2252877D100242746AD
:101CE000F84A0121059400E0044316F8013F203B27
:101CF00001FA03F01042F7D130782A2811D06FF0A2
:101D00002F033078A0F13002092A16D8059A44F042
:101D1000020402EB820203EB42021044761C05909F
:101D2000EFE759F8042B0592002A03DA504244F4F5
:101D30000054059044F00204761C30782E2816D109
:101D400016F8010F44F004042A280DD06FF02F027A
:101D50003078A0F13003092B09D807EB870302EB99
:101D60004303C718761CF3E759F8047B761C3078D8
:101D70006C280FD006DC4C2817D068280DD06A28B4
:101D800014D104E0742810D07A280FD10DE044F467
:101D900000140AE044F4801401E044F44014727822
:101DA000824202D104F58014761C761C30786628B5
:101DB0000BD013DC582877D009DC002875D04528D3
:101DC000F6D04628F4D047281AD19DE118E06328C0
:101DD00035D0642879D0652812D195E1702873D068
:101DE00008DC6728F1D069286FD06E280DD06F28E5
:101DF00006D1B5E073282CD0752875D0782874D01A
:101E00005A46179990476D1C75E1C4F30250022899
:101E100009D003280DD0D9F8001004280DD00D608A
:101E200009F1040967E1D9F80010EA17C1E9005285
:101E3000F6E7D9F800100D80F2E70D70F0E719F819
:101E4000041B8DF8001000208DF80100EA460120E7
:101E500003E059F804AB4FF0FF3061074FF0000189
:101E600002D40DE008F101018846B9420FDA80453D
:101E7000F8DB1AF808100029F4D108E008F1010194
:101E800088468142FADB1AF808100029F6D1059835
:101E90005B46A0EB080721463846179A00F094FAF3
:101EA000284400EB080507E04DE029E10DE01AF8B1
:101EB000010B5A4617999047B8F10108F7D25B46D3
:101EC00021463846179A13E142E00A220092C4F3F1
:101ED00002524FF0000A022A08D059F804CB032A14
:101EE0004FEAEC710AD00DE029E02AE009F1070180
:101EF00021F00702F2E802C1914609E00FFA8CFCDA
:101F00004FEAEC71042A03D14FFA8CFC4FEAEC71D2
:101F1000002907DA0A460021DCF1000C61EB02011E
:101F20002D2202E0220504D52B228DF80420012267
:101F300003E0E20701D02022F7E7904659E00A21AA
:101F400002E010220DE010214FF0000A00910BE09A
:101F500010224FF0000A44F004040827009203E026
:101F600008224FF0000A0092C4F30252022A05D060
:101F700059F804CB0021032A08D009E009F1070130
:101F800021F00702F2E802C1914605E01FFA8CFC3D
:101F9000042A01D10CF0FF0C4FF00008220728D5CD
:101FA000702806D0009B83F0100353EA0A0305D083
:101FB0000EE040228DF80420012208E05CEA0102D4
:101FC00006D030228DF804208DF8050002229046BC
:101FD000009B83F0080353EA0A030AD15CEA01027A
:101FE00001D1620705D530228DF804204FF0010899
:101FF0007F1E582804D034A003900EA802900DE054
:1020000036A0F9E753466046009AFEF7F3F9844696
:102010000398825C0298401E029002705CEA010004
:10202000F0D1029806A9081A00F1200A600702D52B
:1020300024F4803400E00127574502DDA7EB0A00B5
:1020400000E0002000EB0A01009005984144401A8E
:102050000590E00306D45B462146179A059800F0E8
:10206000B3F90544002706E001A85A46C05D179958
:1020700090476D1C7F1C4745F6DBE0030CD55B46A3
:102080002146179A059800F09FF9054404E0302096
:102090005A46179990476D1C0099481E00900029D8
:1020A000F5DC08E0029802995A460078491C029132
:1020B000179990476D1CBAF10001AAF1010AF1DCF1
:1020C00065E10000092801003031323334353637FC
:1020D0003839616263646566000000003031323374
:1020E0003435363738394142434445460000000014
:1020F00000F058F90544761C307800287FF4ECADE8
:1021000019B02846BDE8F08F620700D4062709F110
:10211000070222F0070CFCE80223E14603F0004826
:102120005FEA080C02D00FF2702C0DE05FEA045C4D
:1021300002D50FF2682C07E05FEAC47C02D00FF2F0
:10214000602C01E0AFF2700C4FF0FF3823F0004339
:10215000CDF850C065280CD006DC452809D04628AB
:102160001DD047283DD13DE0662818D067287ED194
:1021700038E00021112F01DB112000E0781CCDE9AF
:10218000000106A90EA8FFF7DDFCDDE90F010E9A9C
:1021900003910021009207F1010A04914DE04FF0F4
:1021A00000400097CDE9011006A90EA8FFF7CAFC70
:1021B000DDE90F0203920E9B11990022DDF80CA0BD
:1021C0000093049211B9791C00EB010AB7EB0A00E5
:1021D00004D4C0F1FF3007F1010A0490AAEB070014
:1021E000019044E0012F00DA01270021112F01DDC9
:1021F000112000E03846CDE9000106A90EA8FFF73E
:10220000A1FCDDE90F010E9A0391002104910092D7
:10221000BA4621070CD40399514500DA8A46BAF12F
:10222000010F05DD009AAAF10101515C302908D0A7
:10223000B84202DA10F1040F06DA0121CDE90110EB
:1022400015E0AAF10101E9E7002805DC0499014441
:102250000491AAEB000102E0411C514500DD8A46D1
:102260000499401A401C01904FF000400290200752
:1022700004D40198504501DBCDF8048000208DF88E
:102280004F0002980DF14F07B0F1004F25D02B20E1
:102290000E9002984FF0020800280CDA404202909B
:1022A0002D200E9007E00A210298FEF78DF83031BC
:1022B000029007F8011DB8F10001A8F10108F2DC55
:1022C00002980028EFD1791E0E980870307800F03F
:1022D000200040F0450007F8020D12A8C01B00F1D5
:1022E00007081498007800B1012000EB0A0101985A
:1022F00001EBE07105984144401A401E0590E0034F
:1023000006D45B462146179A059800F05DF805440F
:102310001498007818B15A46179990476D1CE0033D
:1023200024D55B462146179A059800F04DF80544E0
:102330001CE00498002807DBDDE90301884203DD87
:102340000098405C179901E0179930205A46904751
:10235000049805F10105401C04900198401E01906D
:1023600004D12E205A46179990476D1CBAF10001EE
:10237000AAF1010ADDDC05E017F8010B5A461799AE
:1023800090476D1CB8F10001A8F10108F4DC5B4630
:102390002146179A0598ABE62D0000002B0000009F
:1023A000200000002DE9F041044600251E46174696
:1023B000880404D405E039462020B0476D1C641E13
:1023C000F9D52846BDE8F0812DE9F0410446002505
:1023D0001E469046C80301D5302700E02027880418
:1023E00004D505E041463846B0476D1C641EF9D55A
:1023F0002846BDE8F081000000B587B001214FF408
:102400000170FEF761FD4020ADF8180000208DF846
:102410001B0006A91948FEF7D1FB4FF40040FEF758
:1024200037FD1748FEF740FA002001908DF80800AC
:102430008DF809004FF460200390002004900120E3
:102440008DF8140001A90E48FEF77EFA01210C4810
:10245000FEF71FFA0A48FEF7FBFA00BF0848FEF72E
:1024600068FA0028FAD10648FEF702FB00BF0448CC
:10247000FEF748FA0028FAD107B000BD0008014075
:102480000024014010B56FF00400FEF74DFE0A482D
:1024900000680A49B0FBF1F0094908700846007865
:1024A00000EB4001C1EBC0104FF6FF7101EAC00024
:1024B0000449088010BD00001000002000127A00BE
:1024C000380000203A0000200146114A12884A4391
:1024D0004FF0E0235A6100229A611A46126942F0D5
:1024E00001021A6100BF4FF0E022106900F0010202
:1024F0001AB100F48032002AF5D04FF0E0221269C0
:1025000022F001024FF0E0231A6100229A61704725
:102510003A00002000BF054A128802F04002002A5B
:10252000F9D0C2B2014B1B1D1A8070470038014020
:102530001FB54FF0000B00200390FEF70BFEFFF7D6
:10254000A1FFFEF7FDFB4FF4165000F095F8FFF7E2
:1025500053FF002141F61F40FEF746FCFEF790FABC
:10256000FEF7DEFA3DE0012000F05AF80A210620CD
:10257000FEF7CEFB02900298FDF7D9FE0190FDF721
:10258000F4FE07464FF06632164BFDF755FE054642
:10259000FDF7FEFE82460220FEF720FDC0F1000995
:1025A0000420FEF71BFD444221460F480068FFF758
:1025B00035FA039049460C480068FFF769FA8346EC
:1025C0005846FEF79DFD0398FEF7A4FD5046FDF723
:1025D000CCFE05462A460B4604A0CDE90049FFF78C
:1025E00091FAC0E76626823F00000020B5B1C7B06F
:1025F000B5E7D1B93D25362E326620562020456EEE
:10260000636F6465725F41203D2025642020456E24
:10261000636F6465725F423D25640D0A000000002F
:1026200010B50446012C0FD1C1031248FEF753FB2D
:10263000A1031048FEF74DFB61030E48FEF74BFB6C
:1026400021030C48FEF745FB9CB94FF48041094833
:10265000FEF741FB4FF400410648FEF73AFB4FF40A
:1026600000510448FEF735FB4FF480510148FEF756
:1026700032FB10BD000C014010B586B004460121AC
:1026800044F20400FEF720FC4FF40070ADF8140093
:1026900003208DF8160018208DF8170005A91C4896
:1026A000FEF78CFA4FF48060ADF8140004208DF82A
:1026B000170005A91648FEF781FA25208DF80000BD
:1026C00003208DF801008DF8020001208DF8030031
:1026D0006846FEF751FB01940020ADF80800ADF804
:1026E0000A00ADF80C00ADF810000C20ADF80E009B
:1026F00001A90848FFF71EF9012240F225510548BB
:10270000FFF7F2F801210348FFF7B8F806B010BD53
:102710000008014000380140382700080000002070
:1027200054000000241B00088C27000854000020DF
:10273000CC040000341B0008F40100000000803FBE
:10274000000040400000000000A24A040000000019
:102750000000000001020304060708090000000051
:102760000102030401020304060708090204060823
:102770000000000000000000000000000000000059
:0C2780000000000000000000000000004D
:04000005080000ED02
:00000001FF
