:020000040800F2
:100000003052002081020008395200082F4B0008AE
:1000100071500008D9130008115F000800000000AB
:10002000000000000000000000000000C101000806
:10003000BB160008000000001D020008AD530008B8
:100040009B0200089B0200089B0200089B0200081C
:100050009B0200089B0200089B0200089B0200080C
:100060009B0200089B0200089B0200089B020008FC
:100070009B0200089B0200089B0200089B020008EC
:100080009B0200089B0200089B020008E91300087D
:10009000DD1300089B0200089B0200089B02000879
:1000A0009B020008795400089B0200089B0200088C
:1000B0009B0200089B0200089B0200089B020008AC
:1000C0009B0200089B0200089B0200089B0200089C
:1000D0009B0200089B020008AD5E0008D95E000884
:1000E0009B0200089B0200089B0200089B0200087C
:1000F0009B0200089B0200089B0200089B0200086C
:100100009B0200089B0200089B0200089B0200085B
:100110009B0200089B0200089B0200089B0200084B
:10012000FD1500089B0200089B0200089B020008C6
:100130009B0200089B0200089B0200089B0200082B
:100140009B0200089B0200089B0200089B0200081B
:100150009B0200089B0200089B020008E55E000865
:100160009B0200089B0200089B0200089B020008FB
:100170009B0200089B0200089B0200080000000090
:100180009B0200089B0200089B0200089B020008DB
:100190009B0200089B0200089B0200089B020008CB
:1001A00000000000000000009B020008DFF80CD0F7
:1001B00000F00AFC00480047E189000830520020A6
:1001C0002C4B19680868B0E8F04F80F30988BFF33A
:1001D0006F8F4FF0000080F311887047000000001F
:1001E00008480068006880F308884FF0000080F33A
:1001F000148862B661B6BFF34F8FBFF36F8F00DF15
:1002000000BF00BF08ED00E0DFF80C00016841F41A
:1002100070010160704700BF88ED00E0EFF30980D6
:10022000BFF36F8F134B1A681EF0100F08BF20ED3D
:10023000108A20E9F04F106009B44FF0500080F3AD
:100240001188BFF34F8FBFF36F8F0AF09FFA4FF003
:10025000000080F3118809BC19680868B0E8F04F05
:100260001EF0100F08BFB0EC108A80F30988BFF3AE
:100270006F8F704778010020EFF305807047000012
:100280000648804706480047FEE7FEE7FEE7FEE730
:10029000FEE7FEE7FEE7FEE7FEE7FEE75D54000847
:1002A000AD0100082DE9F05F0546002092469B460F
:1002B00088460646814640241BE02846414647467C
:1002C000224600F062FA53465A46C01A914110D3B2
:1002D00011461846224600F049FA2D1A67EB01082C
:1002E0004F4622460120002100F040FA17EB00099A
:1002F0004E41201EA4F10104DFDC484631462A4667
:100300004346BDE8F09F40EA01039B0703D009E0A4
:1003100008C9121F08C0042AFAD203E011F8013BF1
:1003200000F8013B521EF9D27047D2B201E000F84A
:10033000012B491EFBD270470022F6E710B5134689
:100340000A4604461946FFF7F0FF204610BD2DE986
:10035000FE4F804681EA0300C00F0C46009021F05A
:10036000004123F00045B8EB0200A94105D2404608
:10037000214690461C460B46024623F0004010439F
:1003800047D0270DC7F30A00C3F30A510290401A61
:10039000019040286BDAC3F3130040F4801B0098EF
:1003A000924620B10023D2EB030A63EB0B0B0198BA
:1003B0005946C0F14002504600F0D8F906460D46B5
:1003C00050465946019A00F0F0F910EB08006141DF
:1003D000002487EA115284EAE7731A4340D0009A56
:1003E00062B3019A012A4FEA075215DC001B61EB48
:1003F00002014FF0004202EA0752CDE90042001C20
:1004000041F5801132462B4600F027FA03B0BDE8D3
:10041000F08F40462146F9E7001B61EB0201001C0A
:1004200041F5801300185B412018A2F5001747EB37
:10043000030140EAD570B6196D4111E06D084FEA2D
:10044000360645EAC0754FEA0752001B61EB020110
:10045000001C41F5801149084FEA30000019514154
:1004600032462B4603B0BDE8F04F00F0E7B90098E4
:10047000012240000023D0EB020263EBE0730098FE
:1004800021464FEAE074B8EB000061EB0401E9E7B4
:1004900083F000435BE781F0004158E72DE9FE4F10
:1004A00081EA030404F0004421F0004100944FF07D
:1004B000000B23F0004350EA01045ED052EA03042B
:1004C0005BD0C3F30A54C1F30A552C44A4F2F334AD
:1004D0000194A0FB0254C1F3130141F48011C3F352
:1004E000130343F4801301FB024400FB034E840A10
:1004F000970A44EA815447EA8357A4FB07680295A8
:100500008D0A05FB07854FEA932C04FB0C54270545
:10051000029D4FEA065847EA1637B5EB08056EEB21
:10052000070C870E920E47EA811742EA8312A7FB57
:100530000201B6EB0B0164EB00042B0D43EA0C3314
:100540005E1844EB1C50DA465146E7FB0201C5F346
:1005500013044FEA0B3343EA14534FEA0432019C6D
:1005600043EA0603A4F10C040294009CCDE900B414
:1005700000F073F903B0BDE8F08F00200146F9E701
:100580002DE9F04D81EA030404F0004B21F0004511
:1005900014464FF0000A23F0004150EA050220D033
:1005A00054EA01021DD0C5F30A570246C5F31303EE
:1005B000C1F31300C1F30A5640F4801543F48013CD
:1005C000A7EB0608101BD64608F2FD3873EB0500B2
:1005D00002D308F1010801E092185B41B8F1000F65
:1005E00003DA00200146BDE8F08D00204FF48011B1
:1005F000064684460EE0171B73EB050705D3121B56
:1006000063EB050306434CEA010C49084FEA30004E
:1006100092185B4150EA0107EDD152EA030012D073
:1006200082EA040083EA0501084305D0101BAB41B0
:1006300006D20122002306E000224FF0004302E030
:100640006FF0010253101AEB06004CEB085110EB4F
:100650000A0041EB0B01BDE8F04D00F0EFB80EB51C
:10066000C10F80EAE0700844CA07002140F233431A
:100670008DE80E000A460B4600F0EFF803B000BD0F
:1006800000F0004230F000400AD0C10D01F5607169
:10069000C0F3160042EA0151C208400711437047F7
:1006A000002001467047000030B5041E71F10004BF
:1006B00004DB4FF00044404264EB0101141E73F16F
:1006C000000405DB1C464FF00043524263EB040379
:1006D0008B4208BF824230BD30B5041E71F1000468
:1006E00004DB4FF00044404264EB0101141E73F13F
:1006F000000405DB1C464FF00043524263EB040349
:10070000994208BF904230BD01F0004330B421F05F
:10071000004150EA010206D00A0DA2F56072C1F351
:100720001301002A02DC30BC00207047440F44EA69
:10073000C104C100E01830BC00EBC25000F047B863
:1007400030B50B46014600202022012409E021FAA1
:1007500002F59D4205D303FA02F5491B04FA02F59E
:100760002844151EA2F10102F1DC30BD202A04DB71
:10077000203A00FA02F1002070479140C2F12003B4
:1007800020FA03F3194390407047202A04DB203AF3
:1007900021FA02F00021704721FA02F3D040C2F1A1
:1007A00020029140084319467047202A06DBCB17E8
:1007B000203A41FA02F043EAE07306E041FA02F31C
:1007C000D040C2F1200291400843194670470029E9
:1007D000A8BF7047401C490008BF20F001007047C7
:1007E00010B4B0FA80FC00FA0CF050EA010404BF27
:1007F00010BC704749B1CCF1200421FA04F411FA7D
:100800000CF118BF012121430843A3EB0C01CB1DC0
:100810004FEA00614FEA102042BF002010BC704731
:1008200000EBC35010440029A4BF10BC7047401C0B
:10083000490008BF20F0010010BC704710B5141E1D
:1008400073F1000408DA401C41F1000192185B4189
:100850001A4301D120F0010010BD2DE9F04D924660
:100860009B4611B1B1FA81F202E0B0FA80F2203277
:100870009046FFF77BFF04460F4640EA0A0041EA34
:100880000B0153465A46084313D0114653EA010060
:1008900019D0C8F140025046FFF777FF05460E46D3
:1008A000504659464246FFF761FF084305D00120F4
:1008B00004E020463946BDE8F08D0020054346EAB5
:1008C000E0762C4337430A986305E40AA0EB08005E
:1008D0000022FD0A44EA47540A3002D500200146AE
:1008E000E9E7010510196941DDE908450019694189
:1008F000BDE8F04DA2E72DE9F04D00231A461B1A82
:100900008A4103DB00200146BDE8F08DC1F30A52A5
:10091000C1F3130141F480154FF0000BD10702D150
:1009200000186D41521E0027044640F2FF11384660
:1009300001EB620A3E468046024600204FF48011D9
:10094000FFF723FFC2197141BB1846EB0100B4EB5E
:10095000030C75EB000C04D3E41A65EB0005174695
:100960000E46241908F101006D4180463428E3DD6C
:10097000F91946EB0600091BA84103D24FF0FF32DC
:10098000134601E0002213461BEB070046EB0A5119
:10099000BDE8F04DFFF752BFC1F30A52C1F3130196
:1009A00040F2FF3341F480119A4202DA00200146FE
:1009B000704740F233439A42A2F2334202DC524281
:1009C000FFF7E3BEFFF7D2BE064C074D06E0E06836
:1009D00040F0010394E8070098471034AC42F6D386
:1009E000FFF7E8FB80B70008A0B7000830B58C1807
:1009F00010F8012B12F00F0301D110F8013B12097E
:100A000006D110F8012B03E010F8015B01F8015B3F
:100A10005B1EF9D101E001F8013B521EFBD1A1425E
:100A2000E6D3002030BD00004A494A6822F4403233
:100A30004A604A6843681A434A6001684A6822F477
:100A400080724A6001684A68036942EA03224A6088
:100A500001684A6822F040724A6001684A68836807
:100A60001A434A6001688A6822F400628A60016859
:100A70008A68C3681A438A60816A6FF07062D142E3
:100A800014D001688A6822F070628A6001688A68FE
:100A9000836A1A438A6001688A6822F040528A6039
:100AA00001688A68C36A1A438A6009E001688A6833
:100AB00022F070628A6001688A6822F040528A607F
:100AC00001688A6822F002028A6001688A68037EEF
:100AD00042EA43028A6090F8201089B101684A68AE
:100AE00042F400624A6001684A6822F460424A6047
:100AF00001684A68436A5B1E42EA43324A6004E086
:100B000001684A6822F400624A600168CA6A22F4F5
:100B10007002CA620168CA6A838B5B1E42EA035292
:100B2000CA6201688A6822F400728A6001688A6871
:100B300090F8303042EA43228A6001688A6822F4E1
:100B400080628A6001688A68406942EA8020886021
:100B5000704700000023014010B5DFED260A2DED9F
:100B6000028B82B09FED228AB0EE481AB0EE480A9E
:100B700008F012FB05F0CEF94FF48774204607F019
:100B8000CFFEB0EE481AF0EE480A9FED1B0A08F0BF
:100B900003FB05F0BFF9204607F0C2FEB0EE481A8D
:100BA000DFED160AB0EE480A08F0F6FA05F0B2F9E1
:100BB000134CD4E90A01CDE9000104F118000FC873
:100BC00004F042FA4FF4FA6009F044FD08F0B4FE74
:100BD0004FF47A7009F03EFDD4E90401CDE900013B
:100BE00094E80F0004F030FA02B0BDEC028B10BDA7
:100BF0000000000000004D440040C4440000B9C3A0
:100C000010B5000800B531202DED028B81B09FEDAD
:100C10001A8A8DF800009FED190AB0EE481AF0EE1E
:100C2000480A08F0B9FA05F075F9B0EE481ADFED98
:100C3000140AB0EE480A08F0AFFA05F06BF9002389
:100C40001A46194618469FED0F1ADFED0F0AB3EE4C
:100C50000A0A04F015FA4FF4167009F0FBFC0B4B6E
:100C6000012269460A4803F0C1FE642009F0F2FC43
:100C700001B0BDEC028B00BD00000000000002C30B
:100C8000000011440000ACC2000012C3A0860100A5
:100C900018070020642008F087FCFBE770B5954C2E
:100CA0008AB00646D4E91001CDE9000104F1300014
:100CB0000FC804F0C9F900F009FD4FF4167009F0EF
:100CC000C9FC4FF4877007F02BFED4E91601CDE97B
:100CD000000104F148000FC804F0B6F94FF4B475F0
:100CE000284609F0B7FC09F06FFA4FF4967009F046
:100CF000B1FCD4E910013034CDE9000194E80F00D3
:100D000004F0A2F9284609F0A5FC9FED7B0A7B4C74
:100D100084ED030A9FED7A0A84ED040A9FED790AB7
:100D200084ED050A9FED782ADFED781ADFED782A49
:100D3000DFED780A9FED783A9FED781A9FED780AFB
:100D4000784A04F10C05012E07D0D07831287DD0E7
:100D500032287CD033287BD06BE01078312804D047
:100D6000322821D033286AD063E05078322802D06C
:100D7000332802D05DE0907886E090787FE000BF75
:100D8000C4ED021AC4ED060A84ED071A84ED083A90
:100D900084ED090A84ED0A0A84ED0B0A242229460F
:100DA000684684EC022A30E05078312802D033289B
:100DB00014D03EE0907880E084ED063AC4ED070A56
:100DC00084ED081A84ED090A84ED0A0A84ED0B0A01
:100DD000242229466846C4EC031A16E0907868E09D
:100DE000C4ED001AC4ED012A84ED022A84ED063A0E
:100DF00084ED071A3AE000BF84ED090A84ED0A0A7F
:100E000084ED0B0A242229466846FFF77CFA94E811
:100E10000E00002006F02AFF3C2009F01BFC2422D3
:100E200029466846FFF76FFA94E80E00012006F0A5
:100E30001DFF0AB06420BDE8704009F00BBC50787B
:100E4000322806D03128F4D1907840E011E02AE031
:100E500037E090784BE000BFC4ED002AC4ED011AE2
:100E600084ED022A84ED061A84ED073AC4ED080ADF
:100E7000C2E71079322806D03328DAD150793228E7
:100E80003FF47EAFD5E750793328D2D184ED002AE4
:100E9000C4ED011AC4ED022AC4ED060A84ED073A36
:100EA00084ED081AA8E71079312805D03328C0D17D
:100EB0005079312894D0BCE7507933283FF47CAF87
:100EC000B7E71079322811D03128B2D150793228C1
:100ED000AFD1C4ED002A84ED012AC4ED021A84EDDD
:100EE000061AC4ED070A84ED083A85E750793128DF
:100EF000B2D09EE710B500080000874374090020B7
:100F0000000034430000B443CDCC7C43CD4C8A4335
:100F10009AD99443355EBA3E8D97AE3E6F12C33E6A
:100F20006891EDBCD010002070B5984C88B0054693
:100F3000D4E91C01CDE9000104F160000FC804F000
:100F400083F800F0C3FB4FF4167009F083FB002018
:100F500007F0E6FC04F180004FF4E676012D47D05F
:100F6000D0E90812CDE9001210300FC804F06CF877
:100F7000304609F06FFB022009F06EF94FF49676C7
:100F8000304609F067FBD4E91C016034CDE900016B
:100F900094E80F0004F058F84FF4B47009F05AFBCD
:100FA0009FED7B0A7B4C84ED030A9FED7B0A84ED69
:100FB000040A9FED7A0A84ED050ADFED790A9FEDB8
:100FC000791ADFED791A9FED792ADFED792A9FED05
:100FD000793A794A04F11001012D17D0D0789FEDAC
:100FE000770A31287ED032287DD033287CD069E042
:100FF000D0E90210CDE9001004F178010FC904F026
:1010000023F8304609F026FB0120B5E710789FED64
:101010006C0A312804D0322827D033285DD051E023
:101020005078322802D0332811D04BE0907878E005
:1010300084ED090A84ED0A0A84ED0B0A04F1180311
:10104000C4EC030A2022684683EC032A34E090783B
:1010500063E000BFC4ED000AC4ED011A84ED021A7A
:1010600084ED062A84ED073A4EE05078312802D00C
:1010700033280CD026E0907860E000BF84ED090AA8
:1010800084ED0A0A84ED0B0A2022684614E0907869
:1010900050E000BFC4ED020AC4ED062A84ED073A11
:1010A00084ED082A84ED090A84ED0A0A84ED0B0A0E
:1010B0002022684684EC021AFFF725F994E80F0015
:1010C00006F052FE002009F063F900F0FFFA08B0C4
:1010D0003046BDE8704009F0BDBA5078322807D0DC
:1010E000312802E013E01FE037E0EBD190783AE0DE
:1010F00090783CE0C4ED001AC4ED010A84ED021AB8
:1011000084ED063A84ED072AC4ED082AB6E7107983
:10111000322805D03328D5D1507932289AD0D1E75A
:101120005079332884D0CDE71079312805D0332881
:10113000C8D150793128ADD0C4E750793328C1D116
:1011400084ED001AC4ED010AC4ED021AC4ED062AAA
:1011500084ED072A84ED083A90E71079322805D00B
:101160003128AFD150793228C4D0ABE7507931283B
:10117000A8D1C4ED001A84ED011AC4ED020A84ED71
:10118000063AC4ED072A84ED082A77E710B500086F
:101190000000000074090020000034430000B4C2C5
:1011A0009A9989C13333D3409A99DD41355EBA3E6D
:1011B0008D97AE3E6F12C33ED0100020CDCC4C3D7B
:1011C0006891EDBC7CB51C484FF0FF3219490068AE
:1011D00009F010FD00282CD09FED180ADFED180A49
:1011E000B0EE401A07F0D8FF04F094FE154CD4E995
:1011F0000A01CDE9000104F118000FC803F024FF33
:1012000000F064FA4FF41675284609F023FA08F046
:1012100093FB284609F01EFAD4E90401CDE9000148
:1012200094E80F0003F010FF2846BDE87C4009F069
:1012300011BA7CBD60000020C40000200000000046
:101240000000664410B500082DE9F04307462DED77
:10125000028B83B009F086FF00F038FA4FF4FA7978
:10126000484609F0F7F909F01DFE32208DF8040018
:101270009FED500A504E86ED030A9FED500A86ED11
:10128000040A9FED4F0ADFF83C8186ED050A4346CC
:10129000012201A94C4803F0A9FB3C2009F0DAF92E
:1012A0004A4D002069462A1892790A54401C0328A6
:1012B000F9DB00244FF47A619FED458ADFED458A22
:1012C000012F40D0E8789DF80020904202D10846D6
:1012D00009F0C0F9012F3ED04346012201A93A4846
:1012E00003F084FB502009F0B5F9A97928198DF88D
:1012F0000010C07888421CD106EB8400F0EE480A4A
:1013000090ED030AB4210120BDEEC00A10EE102AB0
:10131000B0EE680A00F006FD502009F09BF9641C4D
:10132000032C08D009F01EFF00F0D0F9484609F060
:1013300091F9032CCEDB0A2009F08CF903B0BDEC47
:10134000028BBDE8F08328789DF80020904202D1FE
:10135000084609F07FF94346012201A91A4803F023
:1013600045FB502009F076F9A8798DF80000295D39
:101370008142DED106EB8400F0EE480A90ED030ACC
:10138000B4210120BDEEC00A10EE102AB0EE680AAA
:1013900000F0C8FC502009F05DF9641C032CCAD091
:1013A00009F0E0FE00F092F9484609F053F9032CE9
:1013B000D1DBC0E700008743A409002000003443CC
:1013C00000000000A086010018070020D0100020B7
:1013D0004260E53CDD24863EFEE70000014800F067
:1013E000B9BE0000EC050020014800F0B3BE0000CB
:1013F000EC05002010B500297ED0826B4FF4D87325
:10140000D0F800C003EB01135CF803C00CF0040C2F
:10141000C2F808C0BCF1000F77D0D0F800C05CF86B
:1014200003C04FEADC0CC2F804C0D0F800C05CF87E
:10143000033003F00203D3604FF4DA73D0F800C036
:1014400003EB01135CF803C00CF00F0CC2F810C0E2
:101450001162D0F800C05CF80330C3F30723D361F6
:101460004FF4DC73D0F800C003EB01135CF803C049
:1014700082F814C0D0F800C05CF803C04FEA1C2CFE
:1014800082F815C0D0F800C05CF803C04FEA1C4CCD
:1014900082F816C0D0F800C05CF803301B0ED3757C
:1014A0004FF4DE73D0F800C003EB01135CF803C007
:1014B00082F818C0D0F800C05CF803C04FEA1C2CBA
:1014C00082F819C0D0F800C05CF803C04FEA1C4C89
:1014D00082F81AC0D0F800C05CF803301B0ED37637
:1014E0002022D9B103681A610268536923F05003BE
:1014F000536190F83C2001E005E006E0222A15D077
:10150000322A13D017E0426B78E7D0F800C05CF8BD
:1015100003C04FEA5C5CC2F800C086E70368DA608B
:101520000268536923F00A035361E2E702685369D2
:1015300023F40F4353611223012269B190F83C1048
:1015400052291FD0622920D0722922D080F83C2055
:1015500001F09AF8002010BD90F83C10422906D006
:10156000622907D0722909D080F83C20F0E780F882
:101570003C30EDE7322180F83C10E9E7522180F859
:101580003C10E5E780F83C30E2E7222180F83C108F
:10159000DEE7422180F83C10DAE710B501684A69BD
:1015A00022F001024A6190F83C10122904D101682E
:1015B0004A6922F40F424A6190F83C1042290AD04D
:1015C00052290CD072290ED0012180F83C1001F074
:1015D000B1F9002010BD222180F83C10F7E732213C
:1015E00080F83C10F3E7622180F83C10EFE74FF4FD
:1015F0007A74204607F0D8FFFBE70000014801F0AD
:10160000FDB900008C05002001680A4BCAB2103AEF
:10161000A3FB02321209084B9B5CC365032A04D961
:101620006FF30901091D816502E06FF3090181650E
:10163000806D7047ABAAAAAAE4B500080146002055
:101640008A6A8B69002B0FD0B3F5005F1DD08AB377
:10165000012A30D0022A2ED0032A04D1C96A11F0FF
:10166000807F00D0012070471AB1012A07D0022ADA
:10167000F9D1C96A11F0807FF5D001207047C96A9D
:10168000B1F1C07FFAD1012070475AB1012A0BD0C5
:10169000022A07D0032AF7D1C96AB1F1C07FF3D17A
:1016A0000120704701207047C96A11F0807FFAD08D
:1016B00001207047FFE7012070477047704708F02E
:1016C00035FD142007F070FFF9E7000070B5154DE7
:1016D000174C2DED068B9FED14AADFED14AA9FED9C
:1016E000158B9FED169B00BF95ED030A20EE0A0AAD
:1016F000C0EE2A0A94ED360AB8EEC00A30EEC00AEF
:10170000B0EEC00A10EE100AFEF7BAFF53EC182B29
:10171000FEF7BEFE53EC192BFEF7C6FFE4D2BDEC7C
:10172000068B70BD3C000020000000460000B44362
:10173000A00F0020000000000080564000000000C4
:101740000000000030B521482DED028B83B007F07A
:10175000F5FF00241D489FED208ADFED208A0094CC
:101760000194C56DB0EE002ADFED191A9FED191A2C
:10177000F0EE480AB0EE680A4FF4967341F6B052A4
:101780000121A8471148683007F0D8FF0F489FEDA6
:10179000141A68300094019408238C22C46DB0EEB2
:1017A000412ADFED101AF0EE480AB0EE680A002177
:1017B000A0470D48D0F8D810002903DA50F8D41FFC
:1017C000491C016003B0BDEC028B30BDA4080020B1
:1017D000CDCCCC3D00008C420000FA45000000005A
:1017E000EC51B83ECDCC4C3DA00F002070B52C493B
:1017F00000242DED048B82B04FF49673CD6DDFED98
:10180000291A9FED298ADFED298A9FED299A01F196
:10181000680601280094B0EE002A019425D0F0EE6D
:10182000480A9FED241AB0EE680A42F21C520121C8
:101830001B48A8479FED201A009401940823F46DDB
:10184000B0EE412AF0EE491AF0EE480AB0EE680A0E
:10185000A022134800216830A04702B00A20BDEC46
:10186000048BBDE8704008F0F5BE9FED141AF0EE51
:10187000480AB0EE680A43F2205201210848A847FE
:101880000094019408239FED0E2AF0EE491AB7EE5A
:10189000001AF0EE480AB0EE680AC822F46DD8E7E4
:1018A000A4080020CDCCCC3D0000FA45000000008B
:1018B000CDCC4C3D00008C42EC51B83E0000DC42E7
:1018C0009A99993E10B507F0A7FC06F033FBBDE8E6
:1018D000104006F03FBD0000F0B530EE601A2DED6F
:1018E000028B85B02C4D8DED011A30EE201A2B4F56
:1018F00000248DED021A30EEC01AB1EE400A01AE9E
:1019000030EE600A8DED031AB2EE008A8DED040A06
:1019100006EB840004EB440190ED000A04EB840024
:1019200000EBC40020EE080A05EBC00007EB011134
:1019300080ED010AB1F9001000EE101AB8EEC00AED
:1019400007F06DFE641C042CE2DB95ED5B0ABDEE36
:10195000C00A10EE100A00B2009095ED410ABDEEEB
:10196000C00A10EE100A95ED270A03B2BDEEC00AB8
:1019700010EE100A95ED0D0A02B2BDEEC00A10EE8F
:10198000100A01B2064808F0B7FC1E2008F062FEFB
:1019900005B0BDEC028BF0BD980B0020A00F00201D
:1019A000EC0500202DE9F04F2DED088B85B0F0EE11
:1019B00041AAB0EE60AAB0EE40BAFFF783FF9148AB
:1019C000DFF844A2914D90ED0C0A8AED000A95EDE6
:1019D000060AB8EEC00ADFED8E8A60EE280ADFED57
:1019E0008D9A80EEA90A9FED8C9A3BEE4A1A20EE62
:1019F000090A9FED8A8A00EE081A8DED011A95ED0D
:101A0000121AB8EEC10A3BEE0A1A60EE280A80EEFE
:101A1000A90A20EE090A00EE081A8DED021A95EDCA
:101A20001E1AB8EEC10A20EE280AC0EE290A3AEEC4
:101A30004B0A60EE890A00EE880A8DED030A95EDE7
:101A40002A0AB8EEC00A20EE280AC0EE290AB1EE32
:101A50004B0A30EE4A0A60EE890A00EE880A8DEDE4
:101A6000040A01F079FA00EE100ADFF8B8916C4F21
:101A7000B8EE40AA09F5D07B95ED060AB8EEC00A8B
:101A800020EE280AC0EE290A9DED010A60EE890ABF
:101A900000EEC80AB0EEC00A10EE100AB8420CDB25
:101AA00001F05AFA00EE100A5F49B8EE400A30EE33
:101AB0004A0A10EE100A88420FDD00200346024653
:101AC00001460090594808F017FC0A2008F0C2FDB2
:101AD00005B0BDEC088BBDE8F08F06F0F5FC9AED83
:101AE000000AB0EEC00A10EE100AFEF7C9FD41EC84
:101AF000100B4FA053EC102B04F042FA00240DF110
:101B000004084E4608EB840004EB440190ED000A03
:101B100004EB840000EBC40006EBC00005EB0111F0
:101B200080ED010A91ED060AB8EEC00A60EE280ABF
:101B300080EEA90A20EE090A20EE080A07F06FFDE0
:101B4000641C042CDEDB3C4C3C48C4ED01AA90ED47
:101B5000000A204607F063FDDFF8E48094ED0D0AEB
:101B6000D8F8000080ED040A07F072F8B1460024AE
:101B70004FEA0B0604EB840000EBC40009EBC00144
:101B800006EBC00091ED0D0AD8F8001001EB8401BE
:101B9000D1ED050A04EB440105EB011130EE200AFA
:101BA00080ED010AB1F9001000EE101AB8EEC00A7B
:101BB00007F035FD641C042CDCDB96ED5B0ABDEE02
:101BC000C00A10EE100A00B2009096ED410ABDEE78
:101BD000C00A10EE100A96ED270A03B2BDEEC00A45
:101BE00010EE100A96ED0D0A02B2BDEEC00A10EE1C
:101BF000100A01B20D4808F07FFB0A2008F02AFD08
:101C00003AE70000DC10002050010020A00F002067
:101C1000000000390000104200009842DB0F4940EC
:101C20000000A040F80900200080BB45EC05002022
:101C300025660D0A00000000380D00201401002068
:101C400064000020F0B52DED028BF0EE408A81B0EB
:101C5000F5EEC08AF1EE10FA07D101B02820BDECF4
:101C6000028BBDE8F04008F0F5BC9FED298A294DB4
:101C7000002400BF04EB840000EBC40005EBC000AF
:101C8000B0EE680A80ED018A07F0C9FC641C042CE0
:101C9000F0DB214E214F002404EB840000EBC40054
:101CA00005EBC00106EBC00091ED0D0A04EB440109
:101CB00007EB011180ED010AB1F9001000EE101AD6
:101CC000B8EEC00A07F0ABFC641C042CE4DB96ED14
:101CD0005B0ABDEEC00A10EE100A00B2009096ED4D
:101CE000410ABDEEC00A10EE100A96ED270A03B2B3
:101CF000BDEEC00A10EE100A96ED0D0A02B2BDEE5E
:101D0000C00A10EE100A01B2054808F0F5FAA4E77F
:101D10009A99993FA00D0020980B0020A00F002059
:101D2000EC05002070B514462DED028BB0EE608AF4
:101D3000F0EE408A0D46084605F0A6FEF0EE480A91
:101D4000B0EE680A284607F019F9B0EE680A28468E
:101D500008F06EFBBDEC028B2046BDE8704007F03A
:101D6000C7B970B514462DED028BB0EE608AF0EE67
:101D7000408A0D46084605F0E7FEF0EE480AB0EE50
:101D8000680A284607F030F9B0EE680A284608F0DD
:101D90004FFBBDEC028B2046BDE8704007F0A8B9B0
:101DA00038B44FF0000CCDF800C090F83C20012A68
:101DB0001BD0012280F83C200A680724092A17D981
:101DC0000368DD680A3A02EB420204FA02F225EAED
:101DD0000202DA600A788B680A3A02EB4202934008
:101DE0000268D4682343D36014E038BC02207047F3
:101DF00003681D6902EB420204FA02F225EA0202BC
:101E00001A610A788B6802EB4202934002681469F7
:101E1000234313614A681F24072A15D203685D6BA8
:101E2000521E02EB820204FA02F225EA02025A630F
:101E30000A8893B20A79521E02EB8202934002682A
:101E4000546B234353632CE00D2A15D203681D6B9A
:101E5000D21F02EB820204FA02F225EA02021A639E
:101E60000A8893B20A79D21F02EB82029340026879
:101E7000146B2343136314E00368DD6A0D3A02EB2D
:101E8000820204FA02F225EA0202DA620A8893B2B6
:101E90000A790D3A02EB820293400268D46A234326
:101EA000D3621D4A1D4B04689C420AD10C68122C57
:101EB00007D1546824F400045460546844F4800446
:101EC000546004689C4221D1154C0B68A34201D098
:101ED000112B1BD1536823F480035360536843F4E0
:101EE000000353600968A14210D10E490E4A0968E7
:101EF000B1FBF2F101EB810149000091009929B198
:101F00000099491E009100990029F9D180F83CC040
:101F100038BC002070470000002301400020014031
:101F2000120000103000002040420F0070B504463F
:101F30000025002C03D0206C002610B107E0012002
:101F400070BD204600F01EF8666484F83C60206C8A
:101F500010F0100F04D0012584F83C60284670BDB5
:101F6000206C20F4885040F0020020642046FEF7E8
:101F70005BFD6664206C20F0020040F001002064EC
:101F8000EAE7000070B586B0064614216846FEF701
:101F9000D3F925493068884243D124480025016897
:101FA00041F4807101600068204900F480701439A8
:101FB0000590086840F004000860086800F004001C
:101FC0000590086840F0020008600868032400F0EB
:101FD00002000094059069461548CDE9014500F0DE
:101FE0008DFE009469461348CDE9014500F086FE58
:101FF000124C1148C4E900050015A560C4E903505E
:10200000400060618000A0614011E0614002C4E9CD
:102010000805204600F0E8FD08B1FFF74FFBB46368
:10202000A66306B070BD00000020014044380240A5
:102030000008024000040240106402408C050020A9
:10204000087D012282404148D0F8003243F001036C
:10205000C0F80032D0F8003223F47C53C0F80032CC
:10206000D0F80032D1F824C043EA0C23C0F8003283
:10207000D0F81C329343C0F81C32CB69002B1AD124
:10208000D0F80C329343C0F80C32B1F80CC04B6856
:102090006CF31F43D1F814C000EBCC0CCCF84032E9
:1020A000B1F808C00B686CF31F43D1F814C000EB03
:1020B000CC0CCCF84432CB69012B1AD1D0F80C32BD
:1020C0001343C0F80C32B1F800C04B686CF31F43E7
:1020D000D1F814C000EBCC0CCCF84032B1F808C0F9
:1020E000CB686CF31F43D1F814C000EBCC0CCCF8D8
:1020F00044328B693BB1D0F804321343C0F8043248
:102100000B6933B10AE0D0F804329343C0F80432CB
:10211000F6E7D0F814329343C0F814320B69012B60
:1021200004D1D0F814321343C0F81432096A0129DB
:1021300004D1D0F81C121143C0F81C12D0F80012C0
:1021400021F00101C0F80012002070470064004037
:102150007047000070B5044600252068C168C1F3CF
:1021600000114269C2F3C0021023002902D00AB153
:102170005D01C36020680169C1F300114269C2F3C7
:10218000801219B112B145F480650361206841697C
:1021900011F0010F32D081686B4A32EA010120D080
:1021A00000218268694B33EA02021CD00022836856
:1021B000DFF89CC13CEA030317D000231143194305
:1021C0001CD08168C1F340018268C2F3402280685C
:1021D000C0F340401143084309D02046FFF7DDF922
:1021E00007E00121DDE70122E1E70123E6E745F40D
:1021F000006520688168574A114381602068C16882
:1022000001F003014069C0F3400021B118B1002181
:102210002046FFF7EFF82068016901F003014069EB
:10222000C0F3001021B118B101212046FFF7E2F8F8
:10223000206C284320642068816901F00102416913
:10224000C1F300214369C3F3C0332AB121B11BB1EB
:10225000216C41F0010121648169C1F340014269AF
:10226000C2F340224369C3F3C03329B122B11BB189
:10227000216C41F0020121648169C1F3800241694E
:10228000C1F380214369C3F3C0332AB121B11BB12B
:10229000216C41F004012164816911F0700F08D0B4
:1022A00000214269C2F3C0224369C3F3C03311B1B4
:1022B00036E00121F5E79AB393B3816901F070012B
:1022C00040291BD006DC102909D020290CD0302948
:1022D00022D10EE0502916D060291DD118E0216CC2
:1022E00041F00801216417E0216C41F010012164E4
:1022F00012E0216C41F0200121640DE0216C41F0DD
:102300004001216408E0216C41F08001216403E078
:10231000216C41F480712164816921F07001816137
:10232000206C00280FD0216804204860012084F828
:102330003C002068416921F05B0121F40F414161BB
:102340002046FFF705FF70BD0300000400030008EE
:1023500000000310190501002DE9F0410446002694
:10236000002C04D094F83C00002718B107E00120AD
:10237000BDE8F08184F83D70204600F0BFF80220EF
:1023800084F83C002068016821F0020101602068A7
:10239000016841F00101016000F0DEFD05462068A2
:1023A00040684FF0030810F0010F10D100F0D4FD89
:1023B000401B0A2806D984F83C8084F83D7003202D
:1023C000BDE8F0812068406810F0010FEED0206871
:1023D000416811F0010F70D0A169012950D0016846
:1023E00021F080010160E06901284ED02068016879
:1023F00021F040010160206A01284CD0206801686A
:1024000021F020010160606A01284AD0206801683B
:1024100021F010010160A06A012848D020680168FD
:1024200021F008010160E06A012847D020680168B6
:1024300021F004010160E168A06862690843216934
:10244000114308436168491E08432168C861206838
:10245000016821F00101016000F07EFD0546206861
:10246000406810F0010F34D000F076FD401B0A28C0
:102470002AD984F83C8084F83D700320BDE8F081BF
:10248000016841F080010160ADE72068016841F01A
:1024900040010160AFE72068016841F02001016060
:1024A000B1E72068016841F010010160B3E72068DE
:1024B000016841F008010160B5E710E0206801689B
:1024C00041F004010160B6E72068406810F0010F98
:1024D000CAD12068406810F0010F00D10126012EFA
:1024E00005D0042084F83C000120BDE8F081276479
:1024F000012084F83C000020BDE8F08110B586B0D2
:10250000044614216846FDF717FF1B4920688842DE
:102510002FD11A480021026842F000720260006860
:1025200000F00070059015481038026842F008026B
:1025300002600068022200F0080005900320CDE947
:102540000210CDE900020920049069460C4800F011
:10255000D5FB00220521132000F096FD132000F08A
:1025600085FD00220521142000F08EFD142000F0CE
:102570007DFD06B010BD0000006400404038024000
:10258000000C024010B400290FD190F83C20222A00
:102590000ED090F83C20422A0AD090F83C20622AC3
:1025A00006D090F83C20722A02D0012903D012E014
:1025B00010BC0220704790F83C20322A37D090F8A7
:1025C0003C20522A33D090F83C20622A2FD090F839
:1025D0003C20722A2BD090F83D20012A2AD00122DB
:1025E00080F83D204FF0620C722331B390F83C200C
:1025F000122A38D0222A3AD0422A3BD0322280F8FE
:102600003C20002303640268D2F814C048F6017429
:102610004CEA040CC2F814C080F83D3069B300687D
:10262000416941F05001416110BC0020704710BC6D
:102630000220704710BC0220704790F83C20122AFC
:1026400007D0322A09D0522A0AD0222280F83C2010
:10265000D7E7422280F83C20D3E780F83CC0D0E79F
:1026600080F83C30CDE7522280F83C20C9E780F862
:102670003CC0C6E780F83C30C3E70068416941F0E0
:102680000A014161D0E7000070B5054600F064FC26
:10269000164C6168401AB0F5FA7F02D900F05CFC74
:1026A0006060686B0068A0F20120092816D2DFE89C
:1026B00000F005050505151515151000C0B22070B0
:1026C0000B4900EB400001EB0010294605F0FEFB32
:1026D00004E007482946C03005F0C0FB0548006803
:1026E000416941F00201416170BD0000D800002045
:1026F000A00F0020EC0500202DE9F05F04460E46F7
:102700002268906810F0806F08D1906810F0006F18
:1027100004D1906810F0805F00F0008194F83D00D3
:10272000012813D0012084F83D0094F83C002228B1
:102730000FD0322811D0622813D0122084F83C0028
:10274000906810F0806F10D0002515E00220BDE8E1
:10275000F09F422084F83C00F2E7522084F83C00CD
:10276000EEE7722084F83C00EAE7906810F0006F12
:1027700001D0012500E002254FF4C07000EB0510E8
:10278000115801F001011150216B8B68002B75D09D
:10279000226852F800C04CEA0303D1F80CC0496823
:1027A0004CEAC10119431150216B0A7C02F00F025F
:1027B0000A614FF4C271226801EB0511535823F0EE
:1027C0000F03535022685358D4F830C0DCF810C0BF
:1027D00043EA0C035350216B0A7DCB7D42EA03622E
:1027E0008B7D497D1B0443EA012111434FF4C473DF
:1027F000226803EB0513D150216B0A7ECB7E42EA9F
:1028000003628B7E497E1B0443EA012111434FF48E
:10281000C673226803EB0513D15021680A5842F0B1
:1028200001020A5000F098FB0746DFF8FC80DFF851
:10283000FC90DFF8FCA04FF0000B55B3012D2ED01B
:10284000206880683AEA000040D0B6F1FF3F35D0FA
:1028500026B100F081FBC01BB0422FD9032084F8C1
:102860003C0015B3012D24D021684FF4000088608E
:1028700084F83DB00320BDE8F09FFFE722681358BD
:10288000D1F80CC0098843EA0C0343EA41511150C6
:102890008AE72068806838EA000017D0D5E720680A
:1028A000806839EA000011D0CFE721688020886075
:1028B000DEE721684FF400408860D9E7B5B1012D0B
:1028C0001AD0206880683AEA0000BED194F83C0033
:1028D000422817D0522819D072281BD0012084F822
:1028E0003C0084F83DB00020BDE8F09F206880687F
:1028F00038EA0000A9D1E9E72068806839EA0000D9
:10290000A3D1E3E7222084F83C00EAE7322084F8F0
:102910003C00E6E7622084F83C00E2E7042084F80B
:102920003C000120BDE8F09F030000040003000804
:102930000000031070472DE9F0410446A66D00F039
:102940000BFB054694F835000027022806D08020AE
:10295000606584F834700120BDE8F081206801686A
:1029600021F0160101602068416921F08001416178
:10297000206C08B9A06C20B12068016821F0080122
:1029800001602068016821F0010101602068006891
:1029900010F0010F12D000F0DFFA401B052808D913
:1029A00020206065032084F8350084F83470BDE889
:1029B000F0812068006810F0010FECD194F85C0001
:1029C0003F2101FA00F0B060012084F8350084F85E
:1029D00034700020BDE8F08190F83510022903D052
:1029E0008021416501207047052180F8351000687D
:1029F000016821F001010160002070472DE9F843D2
:102A000004464FF00008CDF8008076484FF4165188
:102A10000068B0FBF1F7A56D2E6894F85C00082102
:102A200001FA00F0304211D02068026812F0040F61
:102A30000CD0026822F00402026094F85C0001FAF3
:102A400000F0A860606D40F00100606594F85C00E3
:102A50004FF0010909FA00F0304209D021684969B4
:102A600011F0800F04D0A860606D40F00200606536
:102A700094F85C1004208840304209D0216809682D
:102A800011F0020F04D0A860606D40F00400606592
:102A900094F85C1010208840304224D021680968E6
:102AA00011F0080F1FD0A8602068016811F4802F72
:102AB0000DD0006810F4002F04D0A16C99B120460D
:102AC000884710E0216C71B1204688470BE001680F
:102AD00011F4807F03D1016821F008010160216CAD
:102AE00009B12046884794F85C1020208840304285
:102AF00051D02168096811F0100F4CD0A86094F8EB
:102B0000350005280DD02068016811F4802F32D0DF
:102B1000006810F4002F29D0E16B59B32046884794
:102B200039E02068016821F01601016020684169E0
:102B300021F080014161206C08B9A06C20B12068AF
:102B4000016821F00801016094F85C003F2101FA5E
:102B500000F0A86084F8359084F83480216D002955
:102B60003ED001B02046BDE8F0430847616C09B192
:102B7000204688470FE0016811F4807F07D1016883
:102B800021F01001016084F8359084F83480E16B05
:102B900009B120468847606D002821D0606D10F093
:102BA000010F15D0052084F835002068016821F058
:102BB000010101600098401C0090B84204D82068D0
:102BC000006810F0010FF5D184F8359084F8348056
:102BD000E16C002904D001B02046BDE8F04308476D
:102BE000BDE8F883300000202DE9F041044600F0F4
:102BF000B3F90546DCB1022084F83500002684F8DC
:102C000034602068016821F00101016020680068DB
:102C100010F0010F13D000F09FF9401B052809D9CF
:102C200020206065032084F83500BDE8F081012094
:102C3000BDE8F0812068006810F0010FEBD1216839
:102C40000868234A1040A3686268D4F810C01A4389
:102C5000E36843EA0C031A4363691A43A3691A43FE
:102C6000E3691A43236A1A431043626A042A03D1B0
:102C7000236BE26A1A43104308602068406920F021
:102C80000701606A40EA0105012704280ED1A06A05
:102C90000543E06A50B12046FEF7D0FC30B1402039
:102CA000606584F835700120BDE8F08120684561D9
:102CB0002046FEF7A9FC94F85C103F2202FA01F1CD
:102CC0008160666584F835700020BDE8F081000001
:102CD0003F8010F070B5044600F03EF90546B4F1AF
:102CE000FF3F02D004480078044400F035F9401B4F
:102CF000A042FAD370BD00006C0100202DE9F84F0E
:102D00000022DFF82C92DFF82CE2DFF82CA24FF043
:102D1000010B03274FF00F080BFA02FC0B6803EAC4
:102D20000C0363457AD10C7904F00304012C01D023
:102D3000022C14D18568540007FA04F6B543CE6816
:102D400006FA04F42C438460446824EA0C0C0C79E1
:102D5000C4F30014944044EA0C0CC0F804C0D1F849
:102D600004C037EA0C0C0CD0C4684FEA420C07FAD6
:102D70000CF5AC438D6805FA0CFC4CEA040CC0F869
:102D80000CC091F804C00CF0030CBCF1020F12D17E
:102D90004FEAD20C00EB8C04256A4FEA427C4FEAE2
:102DA000DC6C08FA0CF6B5430E6906FA0CFC4CEA2A
:102DB000050CC4F820C004684FEA420C07FA0CF571
:102DC000AC430D7905F0030505FA0CFC4CEA040C44
:102DD000C0F800C0D1F804C01CF4403F1ED0D9F8A0
:102DE00000C04CF4804CC9F800C0D9F800C00CF405
:102DF000804CCDF800C022F0030C0CF1804505F5A5
:102E00009835D5F808C89407240F08FA04F62CEA78
:102E10000606704503D14FF0000C2FE067E0A0F1EB
:102E2000804CBCF5013C68D0A0F1804CBCF5023C64
:102E300066D0A0F1804CBCF5033C64D0A0F1804C7E
:102E4000BCF5043C62D0A0F1804CBCF5053C60D0E0
:102E5000A0F1804CBCF5063C5ED0A0F1804CBCF5E6
:102E6000073C5CD0A0F1804CBCF5083C5AD0A0F1E6
:102E7000804CBCF5093C58D04FF00A0C0CFA04FC0D
:102E80004CEA060CC5F808C8DAF800C02CEA030CB6
:102E90004C6814F4801F01D04CEA030CCAF800C03F
:102EA000264CD4F800C02CEA030C4D6815F4001F22
:102EB00001D04CEA030CC4F800C0214CD4F800C087
:102EC0002CEA030C4D6815F4003F01D04CEA030CCA
:102ED000C4F800C01B4CD4F800C02CEA030C4D68A9
:102EE00015F4803F01D04CEA030CC4F800C0521C1A
:102EF000102AFFF411AFBDE8F88F4FF0010CBDE7C9
:102F00004FF0020CBAE74FF0030CB7E74FF0040C98
:102F1000B4E74FF0050CB1E74FF0060CAEE74FF009
:102F2000070CABE74FF0080CA8E74FF0090CA5E73A
:102F30004438024000000240083C01400C3C014083
:102F4000043C0140003C0140002A01D081617047EF
:102F500009048161704700000148806870470000E3
:102F60006C0100200248816802781144816070473A
:102F70006C01002010B50B48016841F4007101603C
:102F8000016841F480610160016841F48071016071
:102F9000032000F0ADF8002000F006F800F04AF839
:102FA000002010BD003C024030B505461C4887B0EB
:102FB0000024016841F001010160006806A900F0E9
:102FC0000100009001A800F063F900F095F915499F
:102FD0004000B0FBF1F11548134A491E026040F26F
:102FE000E732C0E90324C0E90114846100F030FE37
:102FF000040012D10D4800F06DFE04000DD119201F
:1030000000F034F8102D07D200222946192000F0D4
:103010003BF80748056000E0012407B0204630BDBA
:103020004438024040420F0000000140E407002005
:10303000700100200C4882B0016841F480410160B9
:10304000006800F4804000900748001F016841F0CC
:10305000805101600068002200F0805000900F2134
:10306000901E02B000F010B84438024000280ADB7D
:1030700000F01F01012202FA01F14009800000F175
:10308000E020C0F80011704710B4184B1B68C3F360
:103090000223C3F1070CBCF1040F01D94FF0040C5B
:1030A0001C1D072C01D2002300E0DB1E012404FAC2
:1030B0000CFCACF1010C0CEA0101994004FA03F399
:1030C0005B1E1A401143002806DB00F1E0200901D5
:1030D00080F8001410BC704700F00F0000F1E020F1
:1030E000090180F8141D10BC704700000CED00E0D1
:1030F00000F00700064A11684FF6FF03194041EA45
:10310000002040F0FD7040F08060106070470000CB
:103110000CED00E02DE9F04704460D46002C13D0DD
:10312000DFF85491D9F80000EFB200F00F00A84288
:103130000DD289F80070D9F8000000F00F00A84205
:1031400005D00120BDE8F0870120BDE8F0872068A8
:103150004A4E10F0020F14D010F0040F03D0306864
:1031600040F4E0503060207810F0080F03D0306851
:1031700040F4604030603068A16820F0F0000843FF
:103180003060207810F0010F3ED060683C49012883
:1031900008D002280DD003280BD0096811F0020FC7
:1031A00028D00AE0096811F4003F06D10120BDE8EB
:1031B000F087096811F0007F19D0316821F0030110
:1031C00008433060FFF7C8FE80463068616800F051
:1031D0000C00B0EB810F17D041F2883AFFF7BCFE2C
:1031E000A0EB0800504508D90320BDE8F087012076
:1031F000BDE8F0870120BDE8F0873068616800F025
:103200000C00B0EB810FE9D1D9F8000000F00F00FD
:10321000A8420AD989F80070D9F8000000F00F0020
:10322000A84202D00120BDE8F087207810F0040FFA
:1032300005D03068E16820F4E05008433060207821
:1032400010F0080F06D03068216920F4604040EA91
:10325000C100306000F060F831680A4AC1F3031120
:10326000515CC8400849086008480068FFF79CFEA8
:103270000020BDE8F0870000003C02400838024012
:103280000038024070B200083000002070010020B9
:103290000F2202600B4A136803F0030343601368B4
:1032A00003F0F0038360136803F4E053C360126813
:1032B00002F46042D20802610348006800F00F0087
:1032C0000860704708380240003C0240014800682E
:1032D000704700003000002000B5FFF7F7FF0449F9
:1032E0000968044AC1F38221515CC84000BD000056
:1032F0000838024080B2000800B5FFF7E7FF044934
:103300000968044AC1F34231515CC84000BD000065
:103310000838024080B2000810B51748006810F065
:103320000C01164816D0164B042912D0082911D1C9
:10333000144C216801F03F02216811F4800F0AD07B
:103340002068C0F38810A0FB03010023FCF7AAFF4C
:1033500009E0184610BD21680023C1F38811A1FBC4
:103360000001FCF79FFF2168C1F30141491C49009E
:10337000B0FBF1F010BD0000083802400024F4005A
:10338000001BB700043802402DE9F84F0446002C1A
:1033900012D02078FB4E10F0010FA6F1040563D087
:1033A000301D016801F00C0104290CD0006800F008
:1033B0000C00082803D010E00120BDE8F88F306829
:1033C00010F4800F09D0286810F4003F4CD06068DA
:1033D000002849D10120BDE8F88F6068B0F5803F32
:1033E00014D0B0F5A02F16D0286820F480302860C3
:1033F000286820F480202860606810B3FFF7ACFDD7
:103400000746286810F4003F0ED02DE0286840F4ED
:1034100080302860F0E7286840F480202860286821
:1034200040F480302860E7E7FFF796FDC01B642872
:1034300002D90320BDE8F88F286810F4003FF3D0CC
:1034400012E0FFF789FD0746286810F4003F0BD013
:10345000FFF782FDC01B642802D90320BDE8F88F66
:10346000286810F4003FF3D12078C74F10F0020F06
:103470004FF0000957D0C548016811F00C0F14D067
:10348000006800F00C00082803D1306810F4800FA9
:103490000BD0E06880B301203860FFF75DFD804607
:1034A000286810F0020F12D01EE0286810F0020FFA
:1034B00005D0E068012802D00120BDE8F88F286817
:1034C000216920F0F80040EAC10028602BE0FFF7F6
:1034D00043FDA0EB0800022802D90320BDE8F88FC5
:1034E000286810F0020FF2D02868216920F0F80057
:1034F00040EAC100286016E0FFE7C7F80090FFF738
:103500002BFD8046286810F0020F0CD0FFF724FD39
:10351000A0EB0800022802D90320BDE8F88F286834
:1035200010F0020FF2D1207810F0080F35D0984833
:10353000DFF860A26169C1B101210160FFF70CFDF4
:103540008046DAF8000010F0020F26D1FFF704FDE4
:10355000A0EB0800022802D90320BDE8F88FDAF8B2
:10356000000010F0020FF1D017E0C0F80090FFF754
:10357000F3FC8046DAF8000010F0020F0DD0FFF7E0
:10358000EBFCA0EB0800022802D90320BDE8F88F6D
:10359000DAF8000010F0020FF1D1207810F0040FDB
:1035A00071D04FF000087C48006810F0805F0AD1AD
:1035B0007948016841F080510160006800F0805056
:1035C00000904FF00108DFF8D4B1DBF8000010F4F0
:1035D000807F1BD1DBF8000040F48070CBF8000046
:1035E000FFF7BAFC8246DBF8000010F4807F0DD1B3
:1035F000FFF7B2FCA0EB0A00022802D90320BDE8C5
:10360000F88FDBF8000010F4807FF1D0A068DFF8BD
:1036100090B1012818D005281DD0DBF8000020F05B
:103620000100CBF80000DBF8000020F00400CBF82C
:103630000000A06840B3FFF78FFC8246DBF8000073
:1036400010F0020F14D03EE0DBF8000040F0010063
:10365000CBF80000EDE7DBF8000040F00400CBF809
:103660000000DBF8000040F00100CBF80000E0E7CC
:10367000FFF772FCA0EB0A0141F28830814204D9C5
:103680000320BDE8F88F26E005E0DBF8000010F02D
:10369000020FEDD017E0FFF75FFC8246DBF8000079
:1036A00010F0020F0FD0FFF757FCA0EB0A0141F218
:1036B0008830814202D90320BDE8F88FDBF8000092
:1036C00010F0020FEFD1B8F1010F04D132480168B8
:1036D00021F080510160A069F0B32C4909684FF0D6
:1036E000FF3801F00C01082966D0022810D0C7F875
:1036F0006090FFF731FC0446286810F0007F2BD063
:10370000FFF72AFC001B022851D90320BDE8F88FDF
:10371000C7F86090FFF720FC8146286810F0007F12
:103720000CD0FFF719FCA0EB0900022802D90320F6
:10373000BDE8F88F286810F0007FF2D1216AE069B7
:10374000A26A0843616A08EB5202890141EA024118
:10375000084394F82C1000E055E040EA0160306026
:1037600001203866FFF7F8FB0446286810F0007F58
:1037700049D1FFF7F1FB001B022813D90320BDE854
:10378000F88F000004380240000047420838024029
:10379000800E4742743802404038024000700040BA
:1037A00070380240286810F0007FE2D02BE02868D3
:1037B00010F0007FA4D126E0012822D03068E26911
:1037C00000F4800191421AD1226A00F03F01914237
:1037D00015D147F6C071626A0140B1EB821F0ED16C
:1037E000A26A00F4403108EB5202B1EB024F06D15D
:1037F00094F82C1000F07060B0EB016F03D0012042
:10380000BDE70120BBE70020B9E770B50446002CF6
:1038100009D0606A002540B125616561A56294F810
:10382000510040B10CE0012070BD6068B0F5827FAE
:10383000F4D0E561F2E784F85050204600F044F8F7
:10384000022084F851002068016821F040010160E5
:10385000A088218900F4827001F404410843A18901
:1038600001F400610843217C01F002010843217D3D
:1038700001F001010843218B01F400710843217F0D
:1038800001F03801084394F8201001F0800108434A
:10389000218D01F40051084321680860A1690420CA
:1038A00000EA114094F8241001F01001014320684F
:1038B00041602068C16921F40061C1616565012032
:1038C00084F85100002070BD30B587B00446142143
:1038D0006846FCF731FD1C492068884231D11B48FD
:1038E0000024016841F480110160006800F4801038
:1038F000059016481438016841F020010160006805
:10390000134D00F0200005904FF4607000900220ED
:10391000CDE9010403200390052004906946284660
:10392000FFF7ECF9012240212846FFF70DFB40206C
:1039300000900120CDE90104694628460394FFF771
:10394000DDF907B030BD00000050014044380240AE
:10395000001402402DE9F84F04460A9E8A46934619
:103960001F4601254FF0000894F8500001280ED0A2
:10397000012084F85000FFF7EFFA814694F85100D7
:10398000616801280ED0B1F5827F07D102E00220E4
:10399000BDE8F88FA16809B9042803D04FF00208E8
:1039A00000F0CBB8BAF1000F1DD0BBF1000F1AD058
:1039B000380018D094F85100042802D0052084F86B
:1039C000510000206065C4F838B0E787A787C4F8C5
:1039D00030A0E786A786206460642068016811F043
:1039E000400F03D006E04FF00108A6E0016841F067
:1039F00040010160E068B0F5006F05D06068002804
:103A000048D0012F46D07EE0606808B1012F3AD13E
:103A1000206B21680088C860206B801C2063E08ECA
:103A2000401EE0862FE02068816811F0020F0DD063
:103A3000E18E59B1012D09D1216B0988C160206B3C
:103A4000801C2063E08E401EE0860025206881688F
:103A500011F0010F0BD0E18F49B1C068A16B088054
:103A6000A06B801CA063E08F401EE0870125FFF75C
:103A700073FAA0EB0900B04205D3B6F1FF3F02D0C4
:103A80004FF0030859E0E08E0028CCD1E08F0028E9
:103A9000C9D13EE0206B216800780873206B401C80
:103AA0002063E08E401EE0862DE02068816811F0E2
:103AB000020F0DD0E18E59B1012D09D1216B09788A
:103AC0000173206B401C2063E08E401EE0860025C1
:103AD0002068816811F0010F0BD0E18F49B1C068F7
:103AE000A16B0870A06B401CA063E08F401EE087B4
:103AF0000125FFF731FAA0EB0900B04202D3B6F17D
:103B0000FF3F11D186B1E08E0028CED1E08F002892
:103B1000CBD14A463146204601F0AAFB38B14FF0DE
:103B200001082020606508E04FF0030805E0A06868
:103B300018B92068C16880680090012084F851009D
:103B4000002084F850004046BDE8F88F7047704769
:103B500090F83C20012A2CD0012280F83C20CA6831
:103B60000023D1F808C022F4407242EA0C02D1F8D6
:103B700004C022F4806242EA0C02D1F800C022F4B0
:103B8000006242EA0C02D1F810C022F4805242EAEC
:103B90000C02D1F814C022F4005242EA0C02C969A6
:103BA00022F4804211430268516480F83C300020C6
:103BB00070470220704730B490F83C20012A44D06E
:103BC000012480F83C40022280F83D200268D2F8AF
:103BD00004C093682CF0700C0D6845EA0C0CC2F818
:103BE00004C00268A2F1804CBCF5803C20D0B2F148
:103BF000804F1DD0A2F1804CBCF5806C18D0A2F192
:103C0000804CBCF5006C13D0A2F1804CBCF5406C2C
:103C10000ED0A2F1804CBCF5823C09D0A2F1804CC0
:103C2000BCF5A03C04D0A2F1804CBCF5C05C04D132
:103C300023F0800349681943916080F83D400021DA
:103C400080F83C1030BC0020704730BC0220704728
:103C500010B50446002C03D094F83D0010B107E0E5
:103C6000012010BD002084F83C00204600F01EF822
:103C7000022084F83D00211D206801F003FC012092
:103C800084F8460084F83E0084F83F0084F8400041
:103C900084F8410084F8420084F8430084F844002A
:103CA00084F8450084F83D00002010BD08B5006888
:103CB0000649884208D10648016841F004010160C4
:103CC000006800F00400009008BD000000080040FB
:103CD0004038024090F83D10012901D00120704782
:103CE000022180F83D100168CA6842F00102CA60F2
:103CF0000068A0F18041B1F5803126D0B0F1804F4D
:103D000023D0A0F18041B1F580611ED0A0F18041A7
:103D1000B1F5006119D0A0F18041B1F5406114D036
:103D2000A0F18041B1F582310FD0A0F18041B1F511
:103D3000A0310AD0A0F18041B1F5C05105D0016891
:103D400041F00101016000207047816801F0070126
:103D50000629F8D0016841F001010160F3E770B570
:103D60000446002594F83C00012818D0012684F868
:103D70003C60022084F83D002068826822F07702CF
:103D800022F47F4282600868502839D00EDC202857
:103D900054D006DC002851D0102811D14EE002206A
:103DA00070BD30284AD040280AD13DE0602831D08B
:103DB00070280DD0B0F5805F03D0B0F5005F13D050
:103DC000012584F83D60002084F83C00284670BD41
:103DD000CB684A688968206801F0C9FB206881685F
:103DE00041F077018160ECE7CB684A688968206818
:103DF00001F0BDFB2068816841F480418160E0E70B
:103E0000CA684968206801F0A1FC5021206801F0CF
:103E1000B9FBD6E7CA684968206801F0AAFC6021AE
:103E2000206801F0AFFBCCE7CA684968206801F060
:103E30008DFC4021206801F0A5FBC2E72268014605
:103E4000104601F09FFBBCE7704770B50446206840
:103E500001694FF0000511F0020F17D0C16811F091
:103E6000020F13D0E91E01610120207720688069CC
:103E700010F0030F03D02046FFF7E6FF05E02046D1
:103E800000F0E0F8204600F08DF925772068016900
:103E900011F0040F18D0C16811F0040F14D06FF0A6
:103EA00004010161022020772068806910F4407FBE
:103EB00003D02046FFF7C8FF05E0204600F0C2F817
:103EC000204600F06FF925772068016911F0080F8E
:103ED00018D0C16811F0080F14D06FF0080101610B
:103EE000042020772068C06910F0030F03D020461B
:103EF000FFF7AAFF05E0204600F0A4F8204600F0F6
:103F000051F925772068016911F0100F18D0C168A8
:103F100011F0100F14D06FF010010161082020770C
:103F20002068C06910F4407F03D02046FFF78CFF63
:103F300005E0204600F086F8204600F033F92577AA
:103F40002068016911F0010F09D0C16811F0010F5B
:103F500005D06FF001010161204600F093F920685F
:103F6000016911F0800F09D0C16811F0800F05D0F0
:103F70006FF0800101612046FFF7E8FD20680169CC
:103F800011F0400F09D0C16811F0400F05D06FF05B
:103F900040010161204600F07FF92068016911F0BD
:103FA000200F0BD0C16811F0200F07D06FF0200157
:103FB00001612046BDE87040FFF7C9BD70BD00003B
:103FC00010B586B0044614216846FCF7B5F923689D
:103FD000174C002117480222A34211D1036843F075
:103FE00008030360006800F0080005904FF470407B
:103FF0000090CDE90121CDE9031269460E4813E096
:104000000E4CA34212D1036843F48073036000682E
:1040100000F48070059020200090CDE9012103205C
:10402000CDE9031069460648FEF768FE06B010BDEC
:104030000008004030380240000C024000040140FB
:1040400000200240704770B504460D46002694F8E3
:104050003C0001280FD0012084F83C006AB1042AFA
:104060001FD0082A32D00C2A44D00126002084F820
:104070003C00304670BD022070BD2946206801F02A
:1040800089FA2068816941F00801816120688169AD
:1040900021F004018161206881692A6911438161ED
:1040A000E4E72946206801F0ADFA2068816941F40F
:1040B000006181612068816921F4806181612068EB
:1040C00081692A6941EA02218161CFE72946206896
:1040D00001F0D4FA2068C16941F00801C16120688B
:1040E000C16921F00401C1612068C1692A691143D5
:1040F000C161BBE72946206801F0FCFA2068C1696C
:1041000041F40061C1612068C16921F48061C1612D
:104110002068C1692A6941EA0221C161A6E710B598
:104120000446002C03D094F83D0010B107E00120B4
:1041300010BD002084F83C00204600F01FF802204B
:1041400084F83D00211D206801F09CF9012084F8CD
:10415000460084F83E0084F83F0084F8400084F86C
:10416000410084F8420084F8430084F8440084F855
:10417000450084F83D00002010BD000008B500682F
:104180000649884208D10648016841F002010160F1
:10419000006800F00200009008BD0000000401402B
:1041A000443802407047000010B50446002909D089
:1041B00004290AD008290BD094F8410001280AD01C
:1041C000012010BD94F83E00F8E794F83F00F5E7B1
:1041D00094F84000F2E70220D9B3042947D0082917
:1041E00048D084F841000122206801F0B1F9234A47
:1041F00020682349904201D0884203D1436C43F4A4
:10420000004343642068904224D0B0F1804F21D015
:10421000A0F18042B2F580621CD0A0F18042B2F5DC
:10422000006217D0A0F18042B2F5406212D08842FD
:1042300010D0A0F18041B1F5A0310BD0A0F18041A8
:10424000B1F5C05106D0016841F0010101600020C4
:1042500010BD09E0816801F007010629F7D0016867
:1042600041F001010160F2E784F83E00BBE784F809
:104270003F00B8E784F84000B5E7000000000140C7
:104280000004014000680349884201D1FEF76ABE7C
:10429000704700000000014070477047704790F879
:1042A0003D1090F83E00084370470000F8B5044602
:1042B00022681068D168536900F00F0CBCF1000F40
:1042C0000AD110F0200F07D011F0200F04D02046A3
:1042D000BDE8F84001F074BC0025BCF1000F75D0BA
:1042E00003F0010C01F490765CEA06066ED010F043
:1042F000010F06D011F4807F03D0226C42F001023E
:10430000226410F0040F06D013F0010F03D0226CCA
:1043100042F00202226410F0020F06D013F0010FE7
:1043200003D0226C42F00402226410F0080F08D07F
:1043300001F0200252EA0C0203D0226C42F0080283
:104340002264226C002A35D010F0200F05D011F025
:10435000200F02D0204601F033FC20684069C0F3F2
:104360008010216C11F0080F00D148B3204601F0F5
:10437000F3FB2068406910F0400F1CD02068143017
:1043800050E8001F21F0400140E80012002AF5D15A
:10439000A06B60B15C490165A06BFEF71DFB0028B6
:1043A00008D0A06B016D01B0BDE8F0400847204681
:1043B000FFF774FFF8BD2046FFF770FFF8BD05E07A
:1043C000FFE72046FFF76AFF2564F8BD236B012B4A
:1043D0007ED110F0100F7BD011F0100F7ED010683E
:1043E0005068009050694FF0200310F0400F43D008
:1043F000A16B0868406880B20028E6D0A28D824296
:10440000E3D9E085C869B0F5807F2DD020680C30F5
:1044100050E8001F21F4807140E80012002AF5D115
:104420002068143050E8001F21F0010140E800121C
:10443000002AF5D12068143050E8001F21F0400117
:1044400040E80012002AF5D184F83E302563206848
:104450000C3050E8001F21F0100140E80012002A43
:10446000F5D1A06BFEF767FAA08DE18D401A81B2FD
:104470002046FFF712FFF8BDA08DE18D401A81B2F2
:10448000E08D0028F7D00029F5D020680C3050E8E6
:10449000002F22F4907240E8002CBCF1000FF4D100
:1044A0002068143050E8002F22F0010240E8002C70
:1044B000BCF1000FF4D184F83E30256320680C3045
:1044C00050E8002F22F0100240E80023002B00E00B
:1044D00004E0F3D12046FFF7E0FEF8BD10F0800FB6
:1044E00007D011F0800F04D02046BDE8F84001F05D
:1044F00067BC10F0400FF0D011F0400FEDD0204617
:10450000BDE8F84001F04FBB495B000870B50446B8
:10451000002C04D094F83D00002510B106E00120E5
:1045200070BD84F83C50204600F022F8242084F826
:104530003D002068C16821F40051C160204601F0AF
:10454000A3FB2068016921F4904101612068416961
:1045500021F02A0141612068C16841F40051C16025
:104560002564202084F83D0084F83E00002070BDC2
:10457000F0B587B0044614216846FBF7DDFE3F49DD
:10458000DFF8F4C0276800223C4B103902240325D1
:1045900007263B4867451FD11F6847F400371F6057
:1045A0001B6803F4003305930B6843F008030B60AA
:1045B000096802AF01F0080105916021CDE90014FE
:1045C00087E864006946FEF799FB00220521262052
:1045D000FEF75AFD262023E0DFF8A8C0674523D167
:1045E0001F6847F480271F601B6803F4802305932E
:1045F0000B6843F008030B60096802AF01F0080183
:1046000005914FF44071CDE9001487E864006946D4
:10461000FEF774FB002205212720FEF735FD272039
:10462000FEF724FD07B0F0BD17488742FAD11348C2
:10463000001D036843F020030360006800F02000C1
:104640000590086840F0400008600868029200F099
:10465000400005904FF48440CDE900040820CDE9E6
:10466000035069460948FEF749FB0022052147200F
:10467000FEF70AFD4720D3E70044004040380240DF
:10468000000C0240004800400014014000180240A5
:1046900090F83E30202B01D00220704759B152B122
:1046A00090F83C30012B08D0012380F83C300023E7
:1046B000036301F067BB01207047022070470000D0
:1046C0002DE9F04F2DED048B804683B0AF4CB04DFB
:1046D000B04A20786870D8F8001091427DD1DFF898
:1046E000B89261283ED1DFF8B4A24FF0010B00264A
:1046F0004F46A01900234178B955B9194079C870BF
:104700001A465946DAF8000006F014FA761C032E11
:10471000EFDB6078E178303800EBC00202EB00108C
:1047200001EB8001A078E37900EB80029C4800EB6C
:1047300042020A446179303901EBC10606EB0111EE
:1047400003EB8101A37903EB830300EB43000B1818
:1047500094A19A4801F024FC984800F0C7F9FF2082
:1047600000F0AAF96F78622F08D10020494622187C
:104770000B185278401C9A710328F8DB6FF02F0653
:10478000632F01D0682F3CD100206A460DF1040C44
:1047900021184B78135449790CF80010401C032859
:1047A000F6DB9DF800009DF80210303800289DF8D7
:1047B0000100A0F1300000EB800006EB400008444F
:1047C00000DD404200EE100AB8EEC00A85ED010A95
:1047D0009DF804003038002800E0B5E09DF80500A1
:1047E0009DF80610A0F1300000EB800006EB4000C1
:1047F000084400DD404200EE100AB8EEC00A85ED24
:10480000020A642F6AD100206946221852780A549D
:10481000401C0528F9DB9DF800009FED699B3038AE
:1048200000282CDD9DF803003038FBF718FF53EC0F
:10483000192BFBF733FE41EC180B9DF801009DF896
:104840000210303800EB800006EB40000844FBF714
:1048500006FF53EC182BFBF77AFD41EC180B9DF883
:1048600004003038FBF7FBFE9FED571B53EC112B78
:10487000FBF714FE53EC182BFBF70AFE2BE09DF818
:1048800004003038FBF7EBFE9FED511B53EC112B6E
:10489000FBF704FE41EC180B9DF803003038FBF7E2
:1048A000DEFE53EC192BFBF7F9FD41EC190B9DF8DB
:1048B00001009DF80210303800EB800006EB40004C
:1048C0000844FBF7CCFE53EC192BFBF740FD53ECEF
:1048D000182BFBF73CFDFBF717FFE860652F2ED187
:1048E00000206A4601AB21184F78175449791954B2
:1048F000401C0328F7DB9DF800009DF802103038BB
:1049000000289DF80100A0F1300000EB800006EBCC
:104910004000084400DD404228619DF804009DF8F5
:104920000610303800289DF80500A0F1300000EB9B
:10493000800006EB4000084400DD40426861082228
:1049400012492548FFF7A4FE2449D8F80000884200
:1049500016D123480078672806D1224800231A463A
:104960002978006806F0E6F80120A86103B0024645
:10497000BDEC048BBDE8F04F19491B48FFF788BE1A
:1049800003B0BDEC048BBDE8F08F000001000020F7
:10499000E000002000440040D0100020C4000020AF
:1049A000F0FDFFFF70616765312E74302E747874EE
:1049B0003D2225642B25642200000000E801002030
:1049C0009A9999999999B93F7B14AE47E17A84BF36
:1049D0007B14AE47E17A843F1807002000140140A1
:1049E00000000020D4000020A00700202DE9F8439B
:1049F00004460E4615461F4694F83D00202802D076
:104A00000220BDE8F883C6B1BDB194F83C0001288E
:104A100016D0012084F83C004FF00009C4F8409003
:104A2000212084F83D00FEF797FA8046A584E584AE
:104A3000A068B0F5805F06D007E00120BDE8F883EC
:104A40000220BDE8F883206980B13546002684F84D
:104A50003C90E08CB8B1434600228021204600976C
:104A600001F0DDF920B10320BDE8F8830025EEE771
:104A7000A5B12168287848606D1CE08C401EE08458
:104A8000E08C0028E7D143460022402120460097D1
:104A900001F0C5F948B10320BDE8F88330882168EA
:104AA000C0F308004860B61CE7E7202084F83D000A
:104AB0000020BDE8F883704731B5002442F210753C
:104AC0009DF8000000280ED02B46012269460648BA
:104AD000FFF78CFF0448FFF7E2FB0028FAD0641CC4
:104AE000E4B2032CECD338BDA007002070B50A4E09
:104AF00005460024285D00280DD0291933460122DF
:104B00000648FFF773FF0548FFF7C9FB0028FAD0F6
:104B1000641CE4B2EEE770BDA0860100A00700208F
:104B2000FF20FFF7C9BF642004F03EFDFBE7FEE76E
:104B3000704700007FB50025224800950195029539
:104B40001F490395016001244FF480310461C0E9DD
:104B50000115047680F820501B49C0E90A15042687
:104B6000C661C56080F830404461FDF7DFF908B1E7
:104B7000FCF7A4FD08208DE8310069461148FDF7D7
:104B80000FF908B1FCF79AFD0220019069460D4823
:104B9000FDF706F908B1FCF791FD03200190694685
:104BA0000848FDF7FDF808B1FCF788FD694605489F
:104BB0000196FDF7F5F8002801D0FCF77FFD7FBDD9
:104BC00000200140440500200100000F104810B5EE
:104BD0000E4901600321416000214FF400228160F1
:104BE000C0E903124FF44012C0E905210122C0E9D7
:104BF000072141628162C162FDF7AEFB002803D04C
:104C0000BDE81040FCF75ABD10BD00000064004034
:104C1000EC050020094808B5016841F480010160F5
:104C20000068002200F48000009005213820FEF783
:104C30002BFABDE808403820FEF718BA3038024099
:104C400010B5B8B005F0CAF904F086FD03F02EFFE8
:104C5000FCF778FD1C222C496846FBF754FB002129
:104C6000684604F0AEFC294C27491C2260601C31C8
:104C700007A8FBF748FB002107A804F0A2FC224983
:104C8000A0601C2238310EA8FBF73DFB00210EA8C6
:104C900004F097FC1C49E0601C22543115A8FBF776
:104CA00032FB002115A804F08CFC174920611C225E
:104CB00070311CA8FBF727FB00211CA804F081FC25
:104CC000114960611C228C3123A8FBF71CFB0021D9
:104CD00023A804F076FC0C49A0611C22A8312AA864
:104CE000FBF711FB00212AA804F06BFC0649E061E8
:104CF0001C22C43131A8FBF706FB002131A804F0C7
:104D000060FC206238B010BD90B100080C0000209B
:104D100070B586B014216846FBF70EFB2F480024BF
:104D2000016841F040010160016801F04001059116
:104D3000016841F001010160016801F00101059184
:104D4000016841F008010160016801F00801059166
:104D5000016841F480710160016801F4807105917E
:104D6000016841F080010160016801F08001059156
:104D7000016841F020010160016801F02001059106
:104D8000016841F004010160016801F0040105912E
:104D9000016841F0020101600068114E00F002005C
:104DA000059000223C213046FEF7CEF870150090A9
:104DB0000220CDE90104012569460A48CDE90345F1
:104DC000FDF79CFF3C200090CDE901546946304638
:104DD0000394FDF793FF06B070BD00003038024029
:104DE000001C024000000240104810B50E4901604E
:104DF0004FF48271416000218160C1604FF4007204
:104E00000161C0E905123022C0E9072141628162D7
:104E10000A21C162FEF7F9FC002803D0BDE810406A
:104E2000FCF74CBC10BD00000050014030060020D3
:104E300010B58EB000240794089409940A940B943A
:104E40001C2168460C94FBF777FA2B48294901602E
:104E500040F28F11C0E9011441F26701C0E9031467
:104E600080218161FEF7F4FE08B1FCF727FC4FF4C6
:104E70008050079007A92048FEF771FF08B1FCF7A2
:104E80001DFC1D48FFF74BF908B1FCF717FC0B940C
:104E90000BA919480C94FEF78EFE08B1FCF70EFC26
:104EA0006020CDE90004029400226946124804946F
:104EB000FFF7C9F808B1FCF701FC042269460E4867
:104EC000FFF7C1F808B1FCF7F9FB082269460A4868
:104ED000FFF7B9F808B1FCF7F1FB0C226946064868
:104EE000FFF7B1F808B1FCF7E9FB0348FFF768F8F2
:104EF0000EB010BD000800408806002010B592B02A
:104F000000240F941C2108A81094FBF715FA202107
:104F10006846FBF711FA21481F49016040F21F3132
:104F2000C0E9011441F26701C0E903148021C0E91E
:104F30000541FFF7F4F808B1FCF7C0FB0F940FA987
:104F400016481094FEF737FE08B1FCF7B7FB602057
:104F5000CDE908040A940B940C940D94002208A93E
:104F60000E480E94FFF76FF808B1FCF7A7FB00940A
:104F70004FF40050CDE90440029401940394694633
:104F800006480794FEF7E4FD08B1FCF797FB0348D9
:104F9000FFF716F812B010BD00040140D006002043
:104FA0000C4810B50A4901604FF4E131416000211D
:104FB00081600C22C160C0E904128161C161FFF708
:104FC000A5FA002803D0BDE81040FCF777BB10BD60
:104FD00000440040180700200C4810B50A49016041
:104FE0004FF4E1314160002181600C22C160C0E9D1
:104FF00004128161C161FFF789FA002803D0BDE87E
:105000001040FCF75BBB10BD004800405C0700206F
:105010000C4810B50A4901604FF4E13141600021AC
:1050200081600C22C160C0E904128161C161FFF797
:105030006DFA002803D0BDE81040FCF73FBB10BD5F
:1050400000140140A00700200FB4054810B500234C
:105050001A4602A9006805F0B5FC10BC5DF814FB07
:10506000B000002000F098FB0A2004F09DFAF9E758
:10507000FEE700F093FC0A2004F096FAF9E700003E
:105080002DE9F05F92462DED0A8B88468146B0EE01
:1050900041AAF0EE60AAF0EE409AFDF75DFF0746E8
:1050A000DFED5CBA9FED5CCBDFED5D8AB7EE009A79
:1050B0009FED5CBA9FED5C8ADFF870B14FF07E56D1
:1050C0005B4C82E0FDF748FFC51B4D452CD394EDAA
:1050D000000A79EEC00A10EE900AB04202DB30EE10
:1050E000090A07E070EE690A10EE900AB0421BDB75
:1050F00030EE490A84ED000A20EE2B0A10EE100A69
:10510000FBF7BEFA53EC1C2BFBF721F9FBF7FCFA7B
:1051100000EE100A4549BCEEC00A083910EE100A2C
:105120000860062005F096FA45452AD394ED010A59
:105130007AEEC00A10EE900AB0420ADB70EE090A5D
:10514000B0EE680AC4ED010A00EE8B0ABCEEC00A9C
:105150000FE070EE6A0A10EE900AB04211DB30EEFA
:10516000490AF0EE680A84ED010A40EE0B0ABCEE33
:10517000E00A2E4910EE100A091F0860022005F00F
:1051800069FA554521D394ED020A7AEE400A10EEF1
:10519000900AB04202DB70EE090A07E070EE4A0A9C
:1051A00010EE900AB04210DB70EE490AB0EE480AE9
:1051B000C4ED020A00EE8B0ABCEEC00A10EE100A23
:1051C000CBF80000022005F045FA94ED000A39EE14
:1051D000C00AB0EEC00A10EE100AB042BFF672AFBD
:1051E00094ED010A3AEEC00AB0EEC00A10EE100AC1
:1051F000B042F3DA94ED020A0E493AEE400AB0EEFC
:10520000C00A10EE100A8842E8DABDEC0A8BBDE84D
:10521000F09F0000B81EC53F9A99999999996E40E0
:10522000000003443333134000809D433C0800409A
:1052300050000020000040407047642004F0B4F9A2
:10524000FBE710B510462DED028BB0EE608AF0EE54
:10525000408A0C4603F0FCFEF0EE480AB0EE680A05
:10526000BDEC028B2046BDE8104003F0BFBD00003E
:1052700010B582B004461548DFF854C00068B0FB92
:10528000FCF04FF47A7C00FB0CF001906068B0F504
:10529000827F0ED10B46009200228021204600F032
:1052A00019F880B1606D40F02000606502B0032005
:1052B00010BD019838B10198401E019020688068A7
:1052C00010F0800FF5D102B0002010BD300000209A
:1052D00000366E012DE9F84304460F469046994684
:1052E000089DFDF739FE401BA9EB0005FDF734FED4
:1052F00006462D480068C0F3CB3068430090206814
:10530000806837EA00000ED00020404546D0B9F151
:10531000FF3F3BD0FDF720FE801BA84205D225B100
:10532000009870B32FE00120EFE72068416821F07A
:10533000E00141606068B0F5827F0BD1A068B0F5F4
:10534000004F02D0B0F5806F04D12068016821F0D1
:1053500040010160A06AB0F5005F09D120680168D2
:1053600021F4005101602068016841F4005101609E
:10537000012084F85100002084F850000320BDE88B
:10538000F883FFE700250098401E009020688068A1
:1053900037EA000005D000204045B8D10020BDE824
:1053A000F8830120F8E700003000002010B55020FD
:1053B00080F31188BFF34F8FBFF36F8F05F078FD37
:1053C00018B104494FF080500860002080F3118824
:1053D00010BD000004ED00E030B593B03021684608
:1053E000FAF7AAFF14210CA8FAF7A6FF194800251E
:1053F000016841F080510160006800F08050119018
:105400001548016841F4404101600068022400F43D
:105410004040119001200090000401908001CDE9EE
:10542000064006200890A820CDE9090404200B902E
:105430006846FDF7A9FF0CA90F2081E831004FF461
:10544000A0500F90E002109005210CA8FDF762FE1D
:1054500013B030BD4038024000700040054801687C
:1054600041F47001016003494FF000608039086029
:105470007047000088ED00E00148FEF7E6BC000040
:10548000E4070020F0B402682C4B2D4C2D4D2E4E1D
:10549000DFF8B8C098420AD0B0F1804F07D0A042E0
:1054A00005D0A84203D0B04201D0604503D122F01C
:1054B00070024F683A43984228D0B0F1804F25D00F
:1054C000A04223D0A84221D0B0421FD060451DD0B9
:1054D000A0F18044B4F5A03418D0A0F18044B4F514
:1054E000A23413D0A0F18044B4F5A4340ED0A0F1BE
:1054F0008044B4F5C05409D0A0F18044B4F5E05420
:1055000004D0A0F18044B4F5005403D122F44072D9
:10551000CC6822434C6922F08002224302608A68F0
:10552000C2620A688262984201D0604501D109696D
:10553000016301214161F0BC70470000000001409F
:105540000004004000080040000C0040000401403E
:1055500001F01F0101238B40D0F820C02CEA030387
:105560000362036A02FA01F1194301627047D0F83D
:1055700008C02CF47F4C42EA0322114341EA0C019B
:1055800081607047826822F07002114341F0070188
:105590008160704770B4026A22F001020262036AFD
:1055A0004268D0F818C02CF0700C2CF0030C0C687A
:1055B00044EA0C0C23F002038C6823430F4C104D7B
:1055C000A04201D0A84205D123F00803CE6833439E
:1055D00023F00403A04201D0A84207D122F4807234
:1055E00022F400724C6922438C6922434260C0F865
:1055F00018C049684163036270BC704700000140F5
:105600000004014070B4026A22F010020262036AD0
:105610004268D0F818C02CF4E04C2CF4407C0C68A4
:105620004CEA042C23F020038C6843EA0413114C49
:10563000114DA04201D0A84206D123F08003CE68CC
:1056400043EA061323F04003A04201D0A84209D147
:1056500022F4806222F400624C6942EA84028C697E
:1056600042EA84024260C0F818C04968816303625C
:1056700070BC7047000001400004014070B4026A31
:1056800022F480720262036A4268D0F81CC02CF0D7
:10569000700C2CF0030C0C6844EA0C0C23F400731F
:1056A0008C6843EA0423114C114DA04201D0A8425A
:1056B00006D123F40063CE6843EA062323F4806313
:1056C000A04201D0A84209D122F4805222F4005213
:1056D0004C6942EA04128C6942EA04124260C0F842
:1056E0001CC04968C163036270BC70470000014080
:1056F0000004014010B4026A22F480520262D0F821
:1057000020C04268C36923F4E04323F440730C686B
:1057100043EA04232CF4005C8C684CEA043CA0F1BE
:105720008044B4F5803404D0A0F18044B4F58234D0
:1057300004D122F480424C6942EA84124260C3617F
:1057400049680164C0F820C010BC7047036AD0F8F3
:1057500020C02CF0010CC0F820C0D0F818C02CF0EC
:10576000F00C4CEA021223F00A0319438261016231
:105770007047036A23F010030362D0F818C0036A6D
:105780002CF4704C4CEA023223F0A00343EA0111DE
:1057900082610162704700002DE9F04173484FF0CB
:1057A000FF322DED088B84B06F49006805F022FAB6
:1057B00000287CD06C4D6E4F2878E8B1294601282E
:1057C0001AD0022874D0032871D191ED030AF0EEAB
:1057D000080A002330EEC01AD1ED020A95ED010A45
:1057E00004B01A46BDEC088BB8EEC00A194618463C
:1057F000BDE8F041FFF744BC5E4C0294D5E90401DA
:10580000CDE9000195E80F0001F02AFF04F10C0139
:105810008846B6EE00BA9FED588ADFED588A584E9A
:105820009FED58AB9FED599B012844D000231A46A9
:10583000386805F0C7F800BF94ED030A20EE080AA7
:10584000C0EE280A96ED360AB8EEC00A30EEC00A5D
:10585000B0EEC00A10EE100AFAF712FFB0EE4A1AC4
:10586000F0EE6A1A53EC112BFAF712FEB0EE491A59
:10587000F0EE691A53EC112BFAF716FFDCD294ED17
:10588000020AB1EE400ADFED430A00231A4630EE69
:10589000601A94EC020A1946184630EE0B0AFFF71C
:1058A000EFFB2069FAF7ECFE41EC100B01E055E04C
:1058B00049E002F097FA0294D5E90401CDE900012C
:1058C00095E80F0001F0D6FF012847D000231A46C3
:1058D0004146386805F076F894ED030A20EE080A90
:1058E000C0EE280A96ED360AB8EEC00A30EEC00ABD
:1058F000B0EEC00A10EE100AFAF7C2FE53EC1A2BF3
:10590000FAF7C6FD53EC192BFAF7CEFEE4D294ED6C
:10591000020ADFED210A00231A4630EEC01A94EC89
:10592000020A1946184630EE0B0AFFF7A9FB206958
:10593000FAF7A6FE04B041EC100BBDEC088BBDE8F5
:10594000F04102F04FBA386804B00023BDEC088B78
:10595000291D1A46BDE8F04105F034B804B0BDEC8D
:10596000088BBDE8F08100008C080020B00000200A
:10597000A80000203C000020000000460000B443C6
:10598000A00F0020000000000000544000000000B4
:10599000000000009A99B9409A99A9400A4810B5A8
:1059A0004FF0FF320749006805F024F9002808D0BD
:1059B00004489FED061A90EC020ABDE81040FBF780
:1059C000F1BF10BD400F002080000020000000004B
:1059D0002DED048B02F0D0FDFBF778FE4FF44870FC
:1059E00004F038FE4D484FF0FF324B49006805F097
:1059F00001F900287DD0FBF705F9FBF7E3FB012057
:105A0000FBF722FC9FED468AB0EE481ADFED458A8F
:105A1000B0EE480AF0EE680A03F0BEFB00F07AFA36
:105A2000B0EE481AF0EE480A9FED3F9AB0EE490AF0
:105A300003F0B2FB00F06EFA0120FBF72FF9B0EE95
:105A4000481AF0EE480A9FED390A03F0A5FB00F072
:105A500061FAB0EE481ADFED360AB0EE480A03F0FC
:105A60009BFB00F057FA0120FBF75EFAFBF774F896
:105A70000220FBF7E9FBB0EE481AF0EE680AB0EE40
:105A8000480A03F089FB00F045FAB0EE481AF0EE40
:105A9000480AB0EE490A03F07FFB00F03BFA02200F
:105AA000FBF7FCF8B0EE481AF0EE480A9FED210A29
:105AB00003F072FB00F02EFAB0EE481ADFED1E0A7A
:105AC000B0EE480A03F068FB00F024FA0220FBF76E
:105AD0002BFAB0EE481ADFED190AB0EE480A03F0CF
